{
  "_format": "hh-sol-artifact-1",
  "contractName": "Tracking",
  "sourceName": "contracts/Tracking.sol",
  "abi": [
    {
      "inputs": [],
      "stateMutability": "nonpayable",
      "type": "constructor"
    },
    {
      "anonymous": false,
      "inputs": [
        {
          "indexed": true,
          "internalType": "address",
          "name": "sender",
          "type": "address"
        },
        {
          "indexed": true,
          "internalType": "address",
          "name": "receiver",
          "type": "address"
        },
        {
          "indexed": false,
          "internalType": "uint256",
          "name": "pickupTime",
          "type": "uint256"
        },
        {
          "indexed": false,
          "internalType": "uint256",
          "name": "distance",
          "type": "uint256"
        },
        {
          "indexed": false,
          "internalType": "uint256",
          "name": "price",
          "type": "uint256"
        },
        {
          "indexed": false,
          "internalType": "string",
          "name": "start",
          "type": "string"
        },
        {
          "indexed": false,
          "internalType": "string",
          "name": "destination",
          "type": "string"
        }
      ],
      "name": "ShipmentCreated",
      "type": "event"
    },
    {
      "anonymous": false,
      "inputs": [
        {
          "indexed": true,
          "internalType": "address",
          "name": "sender",
          "type": "address"
        },
        {
          "indexed": true,
          "internalType": "address",
          "name": "receiver",
          "type": "address"
        },
        {
          "indexed": false,
          "internalType": "uint256",
          "name": "deliveryTime",
          "type": "uint256"
        }
      ],
      "name": "ShipmentDelivered",
      "type": "event"
    },
    {
      "anonymous": false,
      "inputs": [
        {
          "indexed": true,
          "internalType": "address",
          "name": "sender",
          "type": "address"
        },
        {
          "indexed": true,
          "internalType": "address",
          "name": "receiver",
          "type": "address"
        },
        {
          "indexed": false,
          "internalType": "uint256",
          "name": "pickupTime",
          "type": "uint256"
        }
      ],
      "name": "ShipmentInTransit",
      "type": "event"
    },
    {
      "anonymous": false,
      "inputs": [
        {
          "indexed": true,
          "internalType": "address",
          "name": "sender",
          "type": "address"
        },
        {
          "indexed": true,
          "internalType": "address",
          "name": "receiver",
          "type": "address"
        },
        {
          "indexed": false,
          "internalType": "uint256",
          "name": "amount",
          "type": "uint256"
        }
      ],
      "name": "ShipmentPaid",
      "type": "event"
    },
    {
      "inputs": [
        {
          "internalType": "address",
          "name": "_sender",
          "type": "address"
        },
        {
          "internalType": "address",
          "name": "_receiver",
          "type": "address"
        },
        {
          "internalType": "uint256",
          "name": "_index",
          "type": "uint256"
        }
      ],
      "name": "completeShipment",
      "outputs": [],
      "stateMutability": "nonpayable",
      "type": "function"
    },
    {
      "inputs": [
        {
          "internalType": "address",
          "name": "_receiver",
          "type": "address"
        },
        {
          "internalType": "uint256",
          "name": "_pickupTime",
          "type": "uint256"
        },
        {
          "internalType": "uint256",
          "name": "_distance",
          "type": "uint256"
        },
        {
          "internalType": "uint256",
          "name": "_price",
          "type": "uint256"
        },
        {
          "internalType": "string",
          "name": "_start",
          "type": "string"
        },
        {
          "internalType": "string",
          "name": "_destination",
          "type": "string"
        }
      ],
      "name": "createShipment",
      "outputs": [],
      "stateMutability": "payable",
      "type": "function"
    },
    {
      "inputs": [],
      "name": "getAllTransactions",
      "outputs": [
        {
          "components": [
            {
              "internalType": "address",
              "name": "sender",
              "type": "address"
            },
            {
              "internalType": "address",
              "name": "receiver",
              "type": "address"
            },
            {
              "internalType": "uint256",
              "name": "pickupTime",
              "type": "uint256"
            },
            {
              "internalType": "uint256",
              "name": "deliveryTime",
              "type": "uint256"
            },
            {
              "internalType": "uint256",
              "name": "distance",
              "type": "uint256"
            },
            {
              "internalType": "uint256",
              "name": "price",
              "type": "uint256"
            },
            {
              "internalType": "string",
              "name": "start",
              "type": "string"
            },
            {
              "internalType": "string",
              "name": "destination",
              "type": "string"
            },
            {
              "internalType": "enum Tracking.ShipmentStatus",
              "name": "status",
              "type": "uint8"
            },
            {
              "internalType": "bool",
              "name": "isPaid",
              "type": "bool"
            }
          ],
          "internalType": "struct Tracking.TyepShipment[]",
          "name": "",
          "type": "tuple[]"
        }
      ],
      "stateMutability": "view",
      "type": "function"
    },
    {
      "inputs": [
        {
          "internalType": "address",
          "name": "_sender",
          "type": "address"
        },
        {
          "internalType": "uint256",
          "name": "_index",
          "type": "uint256"
        }
      ],
      "name": "getShipment",
      "outputs": [
        {
          "internalType": "address",
          "name": "",
          "type": "address"
        },
        {
          "internalType": "address",
          "name": "",
          "type": "address"
        },
        {
          "internalType": "uint256",
          "name": "",
          "type": "uint256"
        },
        {
          "internalType": "uint256",
          "name": "",
          "type": "uint256"
        },
        {
          "internalType": "uint256",
          "name": "",
          "type": "uint256"
        },
        {
          "internalType": "uint256",
          "name": "",
          "type": "uint256"
        },
        {
          "internalType": "string",
          "name": "",
          "type": "string"
        },
        {
          "internalType": "string",
          "name": "",
          "type": "string"
        },
        {
          "internalType": "enum Tracking.ShipmentStatus",
          "name": "",
          "type": "uint8"
        },
        {
          "internalType": "bool",
          "name": "",
          "type": "bool"
        }
      ],
      "stateMutability": "view",
      "type": "function"
    },
    {
      "inputs": [
        {
          "internalType": "address",
          "name": "_sender",
          "type": "address"
        }
      ],
      "name": "getShipmentsCount",
      "outputs": [
        {
          "internalType": "uint256",
          "name": "",
          "type": "uint256"
        }
      ],
      "stateMutability": "view",
      "type": "function"
    },
    {
      "inputs": [],
      "name": "shipmentCount",
      "outputs": [
        {
          "internalType": "uint256",
          "name": "",
          "type": "uint256"
        }
      ],
      "stateMutability": "view",
      "type": "function"
    },
    {
      "inputs": [
        {
          "internalType": "address",
          "name": "",
          "type": "address"
        },
        {
          "internalType": "uint256",
          "name": "",
          "type": "uint256"
        }
      ],
      "name": "shipments",
      "outputs": [
        {
          "internalType": "address",
          "name": "sender",
          "type": "address"
        },
        {
          "internalType": "address",
          "name": "receiver",
          "type": "address"
        },
        {
          "internalType": "uint256",
          "name": "pickupTime",
          "type": "uint256"
        },
        {
          "internalType": "uint256",
          "name": "deliveryTime",
          "type": "uint256"
        },
        {
          "internalType": "uint256",
          "name": "distance",
          "type": "uint256"
        },
        {
          "internalType": "uint256",
          "name": "price",
          "type": "uint256"
        },
        {
          "internalType": "string",
          "name": "start",
          "type": "string"
        },
        {
          "internalType": "string",
          "name": "destination",
          "type": "string"
        },
        {
          "internalType": "enum Tracking.ShipmentStatus",
          "name": "status",
          "type": "uint8"
        },
        {
          "internalType": "bool",
          "name": "isPaid",
          "type": "bool"
        }
      ],
      "stateMutability": "view",
      "type": "function"
    },
    {
      "inputs": [
        {
          "internalType": "address",
          "name": "_sender",
          "type": "address"
        },
        {
          "internalType": "address",
          "name": "_receiver",
          "type": "address"
        },
        {
          "internalType": "uint256",
          "name": "_index",
          "type": "uint256"
        }
      ],
      "name": "startShipment",
      "outputs": [],
      "stateMutability": "nonpayable",
      "type": "function"
    }
  ],
  "bytecode": "0x608060405234801561001057600080fd5b506000600155611507806100256000396000f3fe60806040526004361061007b5760003560e01c80635667e02f1161004e5780635667e02f146101245780637ff5265d1461015a5780638365da541461017a578063aace20b71461019a57600080fd5b8063146ae10814610080578063179a878c1461009557806327506f53146100b557806341fdc195146100e0575b600080fd5b61009361008e3660046110f8565b6101b0565b005b3480156100a157600080fd5b506100936100b0366004611188565b610559565b3480156100c157600080fd5b506100ca6107f0565b6040516100d79190611249565b60405180910390f35b3480156100ec57600080fd5b506101166100fb366004611347565b6001600160a01b031660009081526020819052604090205490565b6040519081526020016100d7565b34801561013057600080fd5b5061014461013f366004611369565b610a09565b6040516100d79a99989796959493929190611393565b34801561016657600080fd5b50610093610175366004611188565b610b9b565b34801561018657600080fd5b50610144610195366004611369565b610d25565b3480156101a657600080fd5b5061011660015481565b8234146102105760405162461bcd60e51b8152602060048201526024808201527f5061796d656e7420616d6f756e74206d757374206d617463682074686520707260448201526334b1b29760e11b60648201526084015b60405180910390fd5b6000604051806101400160405280336001600160a01b03168152602001886001600160a01b03168152602001878152602001600081526020018681526020018581526020018481526020018381526020016000600281111561027457610274611211565b815260006020918201819052338152808252604080822080546001818101835591845292849020855160099094020180546001600160a01b039485166001600160a01b0319918216178255868601519282018054939095169216919091179092558301516002820155606083015160038201556080830151600482015560a0830151600582015560c083015180519394508493919261031b92600685019290910190610fa0565b5060e08201518051610337916007840191602090910190610fa0565b5061010082015160088201805460ff1916600183600281111561035c5761035c611211565b02179055506101209190910151600890910180549115156101000261ff00199092169190911790556001805490600061039483611414565b91905055506002604051806101400160405280336001600160a01b03168152602001896001600160a01b0316815260200188815260200160008152602001878152602001868152602001858152602001848152602001600060028111156103fd576103fd611211565b81526000602091820181905283546001818101865594825290829020835160099092020180546001600160a01b039283166001600160a01b031991821617825584840151958201805496909316951694909417905560408201516002840155606082015160038401556080820151600484015560a0820151600584015560c082015180519293926104949260068501920190610fa0565b5060e082015180516104b0916007840191602090910190610fa0565b5061010082015160088201805460ff191660018360028111156104d5576104d5611211565b02179055506101208201518160080160016101000a81548160ff0219169083151502179055505050866001600160a01b0316336001600160a01b03167f4293e53ae42b07d2205ee453f9b3d035ac358edd876c7b4d77d63e51881dacd7888888888860405161054895949392919061143d565b60405180910390a350505050505050565b6001600160a01b038316600090815260208190526040812080548390811061058357610583611480565b906000526020600020906009020190506000600283815481106105a8576105a8611480565b60009182526020909120600184015460099092020191506001600160a01b0385811691161461060d5760405162461bcd60e51b815260206004820152601160248201527024b73b30b634b2103932b1b2b4bb32b91760791b6044820152606401610207565b6001600883015460ff16600281111561062857610628611211565b146106755760405162461bcd60e51b815260206004820152601860248201527f536869706d656e74206e6f7420696e207472616e7369742e00000000000000006044820152606401610207565b6008820154610100900460ff16156106c85760405162461bcd60e51b815260206004820152601660248201527529b434b836b2b73a1030b63932b0b23c903830b4b21760511b6044820152606401610207565b60088281018054600260ff1991821681179092559183018054909216179055426003808301829055830155600582015482546040516001600160a01b039091169082156108fc029083906000818181858888f19350505050158015610731573d6000803e3d6000fd5b506008838101805461010061ff00199182168117909255918401805490921617905560038301546040519081526001600160a01b0386811691908816907f3746ccceb54f44c9b0ee0120e596168d07ec9f6ca303cfdd9810d3b2e2686a2e9060200160405180910390a3846001600160a01b0316866001600160a01b03167f2b6f2473aebafaf8d0889669490135928ec4454d2e29a103fd39693bbca6aef1836040516107e091815260200190565b60405180910390a3505050505050565b60606002805480602002602001604051908101604052809291908181526020016000905b82821015610a0057600084815260209081902060408051610140810182526009860290920180546001600160a01b039081168452600182015416938301939093526002830154908201526003820154606082015260048201546080820152600582015460a082015260068201805491929160c08401919061089490611496565b80601f01602080910402602001604051908101604052809291908181526020018280546108c090611496565b801561090d5780601f106108e25761010080835404028352916020019161090d565b820191906000526020600020905b8154815290600101906020018083116108f057829003601f168201915b5050505050815260200160078201805461092690611496565b80601f016020809104026020016040519081016040528092919081815260200182805461095290611496565b801561099f5780601f106109745761010080835404028352916020019161099f565b820191906000526020600020905b81548152906001019060200180831161098257829003601f168201915b5050509183525050600882015460209091019060ff1660028111156109c6576109c6611211565b60028111156109d7576109d7611211565b815260089190910154610100900460ff1615156020918201529082526001929092019101610814565b50505050905090565b60006020528160005260406000208181548110610a2557600080fd5b600091825260209091206009909102018054600182015460028301546003840154600485015460058601546006870180546001600160a01b039788169a50959096169750929591949093610a7890611496565b80601f0160208091040260200160405190810160405280929190818152602001828054610aa490611496565b8015610af15780601f10610ac657610100808354040283529160200191610af1565b820191906000526020600020905b815481529060010190602001808311610ad457829003601f168201915b505050505090806007018054610b0690611496565b80601f0160208091040260200160405190810160405280929190818152602001828054610b3290611496565b8015610b7f5780601f10610b5457610100808354040283529160200191610b7f565b820191906000526020600020905b815481529060010190602001808311610b6257829003601f168201915b5050506008909301549192505060ff808216916101009004168a565b6001600160a01b0383166000908152602081905260408120805483908110610bc557610bc5611480565b90600052602060002090600902019050600060028381548110610bea57610bea611480565b60009182526020909120600184015460099092020191506001600160a01b03858116911614610c4f5760405162461bcd60e51b815260206004820152601160248201527024b73b30b634b2103932b1b2b4bb32b91760791b6044820152606401610207565b6000600883015460ff166002811115610c6a57610c6a611211565b14610cb75760405162461bcd60e51b815260206004820152601c60248201527f536869706d656e7420616c726561647920696e207472616e7369742e000000006044820152606401610207565b60088281018054600160ff199182168117909255918301805490921617905560028201546040519081526001600160a01b0385811691908716907faafab9f94340179ff9cefd29621e1772a4b8efab8023163838f1b0a8f6ce5df59060200160405180910390a35050505050565b60008060008060008060608060008060008060008e6001600160a01b03166001600160a01b031681526020019081526020016000208c81548110610d6b57610d6b611480565b60009182526020918290206040805161014081018252600990930290910180546001600160a01b039081168452600182015416938301939093526002830154908201526003820154606082015260048201546080820152600582015460a082015260068201805491929160c084019190610de490611496565b80601f0160208091040260200160405190810160405280929190818152602001828054610e1090611496565b8015610e5d5780601f10610e3257610100808354040283529160200191610e5d565b820191906000526020600020905b815481529060010190602001808311610e4057829003601f168201915b50505050508152602001600782018054610e7690611496565b80601f0160208091040260200160405190810160405280929190818152602001828054610ea290611496565b8015610eef5780601f10610ec457610100808354040283529160200191610eef565b820191906000526020600020905b815481529060010190602001808311610ed257829003601f168201915b5050509183525050600882015460209091019060ff166002811115610f1657610f16611211565b6002811115610f2757610f27611211565b81526020016008820160019054906101000a900460ff1615151515815250509050806000015181602001518260400151836060015184608001518560a001518660c001518760e001518861010001518961012001519a509a509a509a509a509a509a509a509a509a50509295989b9194979a5092959850565b828054610fac90611496565b90600052602060002090601f016020900481019282610fce5760008555611014565b82601f10610fe757805160ff1916838001178555611014565b82800160010185558215611014579182015b82811115611014578251825591602001919060010190610ff9565b50611020929150611024565b5090565b5b808211156110205760008155600101611025565b80356001600160a01b038116811461105057600080fd5b919050565b634e487b7160e01b600052604160045260246000fd5b600082601f83011261107c57600080fd5b813567ffffffffffffffff8082111561109757611097611055565b604051601f8301601f19908116603f011681019082821181831017156110bf576110bf611055565b816040528381528660208588010111156110d857600080fd5b836020870160208301376000602085830101528094505050505092915050565b60008060008060008060c0878903121561111157600080fd5b61111a87611039565b9550602087013594506040870135935060608701359250608087013567ffffffffffffffff8082111561114c57600080fd5b6111588a838b0161106b565b935060a089013591508082111561116e57600080fd5b5061117b89828a0161106b565b9150509295509295509295565b60008060006060848603121561119d57600080fd5b6111a684611039565b92506111b460208501611039565b9150604084013590509250925092565b6000815180845260005b818110156111ea576020818501810151868301820152016111ce565b818111156111fc576000602083870101525b50601f01601f19169290920160200192915050565b634e487b7160e01b600052602160045260246000fd5b6003811061124557634e487b7160e01b600052602160045260246000fd5b9052565b60006020808301818452808551808352604092508286019150828160051b87010184880160005b8381101561133957888303603f19018552815180516001600160a01b03168452610140818901516001600160a01b038116868b0152508188015185890152606080830151908601526080808301519086015260a0808301519086015260c0808301518187018390526112e4838801826111c4565b9250505060e080830151868303828801526112ff83826111c4565b925050506101008083015161131682880182611227565b505061012091820151151594909101939093529386019390860190600101611270565b509098975050505050505050565b60006020828403121561135957600080fd5b61136282611039565b9392505050565b6000806040838503121561137c57600080fd5b61138583611039565b946020939093013593505050565b600061014060018060a01b03808e168452808d166020850152508a60408401528960608401528860808401528760a08401528060c08401526113d7818401886111c4565b905082810360e08401526113eb81876111c4565b9150506113fc610100830185611227565b8215156101208301529b9a5050505050505050505050565b600060001982141561143657634e487b7160e01b600052601160045260246000fd5b5060010190565b85815284602082015283604082015260a06060820152600061146260a08301856111c4565b828103608084015261147481856111c4565b98975050505050505050565b634e487b7160e01b600052603260045260246000fd5b600181811c908216806114aa57607f821691505b602082108114156114cb57634e487b7160e01b600052602260045260246000fd5b5091905056fea26469706673582212200e35cdcf42c600f6574222c4338f1092bd68e44b0147661eab848110550ae91164736f6c63430008090033",
  "linkReferences": {},
  "deployedLinkReferences": {}
}