{
  "_format": "hh-sol-artifact-1",
  "contractName": "AdminLogin",
  "sourceName": "contracts/AdminLogin.sol",
  "abi": [
    {
      "inputs": [
        {
          "internalType": "string",
          "name": "email",
          "type": "string"
        }
      ],
      "name": "AdminNotFound",
      "type": "error"
    },
    {
      "inputs": [
        {
          "internalType": "string",
          "name": "email",
          "type": "string"
        }
      ],
      "name": "EmailAlreadyRegistered",
      "type": "error"
    },
    {
      "inputs": [
        {
          "internalType": "string",
          "name": "message",
          "type": "string"
        }
      ],
      "name": "InvalidInput",
      "type": "error"
    },
    {
      "anonymous": false,
      "inputs": [
        {
          "indexed": false,
          "internalType": "string",
          "name": "email",
          "type": "string"
        },
        {
          "indexed": false,
          "internalType": "string",
          "name": "phoneNumber",
          "type": "string"
        },
        {
          "indexed": false,
          "internalType": "string",
          "name": "storeName",
          "type": "string"
        },
        {
          "indexed": false,
          "internalType": "address",
          "name": "walletAddress",
          "type": "address"
        }
      ],
      "name": "AdminRegistered",
      "type": "event"
    },
    {
      "anonymous": false,
      "inputs": [
        {
          "indexed": false,
          "internalType": "string",
          "name": "email",
          "type": "string"
        }
      ],
      "name": "AdminRemoved",
      "type": "event"
    },
    {
      "inputs": [
        {
          "internalType": "string",
          "name": "_email",
          "type": "string"
        }
      ],
      "name": "getAdminByEmail",
      "outputs": [
        {
          "internalType": "string",
          "name": "",
          "type": "string"
        },
        {
          "internalType": "string",
          "name": "",
          "type": "string"
        },
        {
          "internalType": "string",
          "name": "",
          "type": "string"
        },
        {
          "internalType": "address",
          "name": "",
          "type": "address"
        }
      ],
      "stateMutability": "view",
      "type": "function"
    },
    {
      "inputs": [],
      "name": "getAllAdmins",
      "outputs": [
        {
          "components": [
            {
              "internalType": "string",
              "name": "email",
              "type": "string"
            },
            {
              "internalType": "string",
              "name": "phoneNumber",
              "type": "string"
            },
            {
              "internalType": "string",
              "name": "storeName",
              "type": "string"
            },
            {
              "internalType": "address",
              "name": "walletAddress",
              "type": "address"
            },
            {
              "internalType": "bytes32",
              "name": "passwordHash",
              "type": "bytes32"
            }
          ],
          "internalType": "struct AdminLogin.Admin[]",
          "name": "",
          "type": "tuple[]"
        }
      ],
      "stateMutability": "view",
      "type": "function"
    },
    {
      "inputs": [
        {
          "internalType": "string",
          "name": "_email",
          "type": "string"
        }
      ],
      "name": "isEmailRegistered",
      "outputs": [
        {
          "internalType": "bool",
          "name": "",
          "type": "bool"
        }
      ],
      "stateMutability": "view",
      "type": "function"
    },
    {
      "inputs": [
        {
          "internalType": "string",
          "name": "_email",
          "type": "string"
        },
        {
          "internalType": "string",
          "name": "_phoneNumber",
          "type": "string"
        },
        {
          "internalType": "string",
          "name": "_storeName",
          "type": "string"
        },
        {
          "internalType": "address",
          "name": "_walletAddress",
          "type": "address"
        },
        {
          "internalType": "string",
          "name": "_password",
          "type": "string"
        }
      ],
      "name": "registerAdmin",
      "outputs": [],
      "stateMutability": "nonpayable",
      "type": "function"
    },
    {
      "inputs": [
        {
          "internalType": "string",
          "name": "_email",
          "type": "string"
        }
      ],
      "name": "removeAdminByEmail",
      "outputs": [],
      "stateMutability": "nonpayable",
      "type": "function"
    },
    {
      "inputs": [
        {
          "internalType": "string",
          "name": "_email",
          "type": "string"
        },
        {
          "internalType": "string",
          "name": "_password",
          "type": "string"
        }
      ],
      "name": "validateLogin",
      "outputs": [
        {
          "internalType": "bool",
          "name": "",
          "type": "bool"
        }
      ],
      "stateMutability": "view",
      "type": "function"
    }
  ],
  "bytecode": "0x608060405234801561001057600080fd5b5061139a806100206000396000f3fe608060405234801561001057600080fd5b50600436106100625760003560e01c8063b31a1ce014610067578063c8fbab4b1461007c578063df3cdad7146100a4578063e9523c97146100b7578063ec8a2807146100cc578063f5eefe25146100ef575b600080fd5b61007a610075366004610f07565b610102565b005b61008f61008a366004610f44565b610340565b60405190151581526020015b60405180910390f35b61008f6100b2366004610f07565b610438565b6100bf6104e1565b60405161009b9190611004565b6100df6100da366004610f07565b610719565b60405161009b94939291906110c2565b61007a6100fd366004611115565b610a2d565b60005b60005481101561031b578160405160200161012091906111e3565b6040516020818303038152906040528051906020012060008281548110610149576101496111ff565b906000526020600020906005020160000160405160200161016a9190611250565b604051602081830303815290604052805190602001201415610309577f4ff477bb0822de7ad9fd283bdcc44d7c570253e8d30277c2dfaecc075795dffc826040516101b591906112ec565b60405180910390a1600080546101cd9060019061131c565b815481106101dd576101dd6111ff565b9060005260206000209060050201600082815481106101fe576101fe6111ff565b9060005260206000209060050201600082018160000190805461022090611215565b61022b929190610d13565b50600182018160010190805461024090611215565b61024b929190610d13565b50600282018160020190805461026090611215565b61026b929190610d13565b5060038281015490820180546001600160a01b0319166001600160a01b0390921691909117905560049182015491015560008054806102ac576102ac611333565b600082815260208120600019909201916005830201906102cc8282610d9e565b6102da600183016000610d9e565b6102e8600283016000610d9e565b506003810180546001600160a01b0319169055600060049091015590555050565b8061031381611349565b915050610105565b5080604051630f8ba3c160e31b815260040161033791906112ec565b60405180910390fd5b6000805b60005481101561042c578360405160200161035f91906111e3565b6040516020818303038152906040528051906020012060008281548110610388576103886111ff565b90600052602060002090600502016000016040516020016103a99190611250565b60405160208183030381529060405280519060200120141561041a57826040516020016103d691906111e3565b60405160208183030381529060405280519060200120600082815481106103ff576103ff6111ff565b90600052602060002090600502016004015414915050610432565b8061042481611349565b915050610344565b50600090505b92915050565b6000805b6000548110156104d8578260405160200161045791906111e3565b6040516020818303038152906040528051906020012060008281548110610480576104806111ff565b90600052602060002090600502016000016040516020016104a19190611250565b6040516020818303038152906040528051906020012014156104c65750600192915050565b806104d081611349565b91505061043c565b50600092915050565b60606000805480602002602001604051908101604052809291908181526020016000905b8282101561071057838290600052602060002090600502016040518060a001604052908160008201805461053890611215565b80601f016020809104026020016040519081016040528092919081815260200182805461056490611215565b80156105b15780601f10610586576101008083540402835291602001916105b1565b820191906000526020600020905b81548152906001019060200180831161059457829003601f168201915b505050505081526020016001820180546105ca90611215565b80601f01602080910402602001604051908101604052809291908181526020018280546105f690611215565b80156106435780601f1061061857610100808354040283529160200191610643565b820191906000526020600020905b81548152906001019060200180831161062657829003601f168201915b5050505050815260200160028201805461065c90611215565b80601f016020809104026020016040519081016040528092919081815260200182805461068890611215565b80156106d55780601f106106aa576101008083540402835291602001916106d5565b820191906000526020600020905b8154815290600101906020018083116106b857829003601f168201915b505050918352505060038201546001600160a01b03166020808301919091526004909201546040909101529082526001929092019101610505565b50505050905090565b606080806000805b600054811015610a0a578560405160200161073c91906111e3565b6040516020818303038152906040528051906020012060008281548110610765576107656111ff565b90600052602060002090600502016000016040516020016107869190611250565b6040516020818303038152906040528051906020012014156109f857600081815481106107b5576107b56111ff565b9060005260206000209060050201600001600082815481106107d9576107d96111ff565b9060005260206000209060050201600101600083815481106107fd576107fd6111ff565b906000526020600020906005020160020160008481548110610821576108216111ff565b906000526020600020906005020160030160009054906101000a90046001600160a01b031683805461085290611215565b80601f016020809104026020016040519081016040528092919081815260200182805461087e90611215565b80156108cb5780601f106108a0576101008083540402835291602001916108cb565b820191906000526020600020905b8154815290600101906020018083116108ae57829003601f168201915b505050505093508280546108de90611215565b80601f016020809104026020016040519081016040528092919081815260200182805461090a90611215565b80156109575780601f1061092c57610100808354040283529160200191610957565b820191906000526020600020905b81548152906001019060200180831161093a57829003601f168201915b5050505050925081805461096a90611215565b80601f016020809104026020016040519081016040528092919081815260200182805461099690611215565b80156109e35780601f106109b8576101008083540402835291602001916109e3565b820191906000526020600020905b8154815290600101906020018083116109c657829003601f168201915b50505050509150945094509450945050610a26565b80610a0281611349565b915050610721565b5084604051630f8ba3c160e31b815260040161033791906112ec565b9193509193565b8451610a745760405163d647364f60e01b8152602060048201526015602482015274456d61696c2063616e6e6f7420626520656d70747960581b6044820152606401610337565b8351610ac35760405163d647364f60e01b815260206004820152601c60248201527f50686f6e65206e756d6265722063616e6e6f7420626520656d707479000000006044820152606401610337565b8251610b125760405163d647364f60e01b815260206004820152601a60248201527f53746f7265206e616d652063616e6e6f7420626520656d7074790000000000006044820152606401610337565b6001600160a01b038216610b695760405163d647364f60e01b815260206004820152601e60248201527f57616c6c657420616464726573732063616e6e6f7420626520656d70747900006044820152606401610337565b8051610bb85760405163d647364f60e01b815260206004820152601860248201527f50617373776f72642063616e6e6f7420626520656d70747900000000000000006044820152606401610337565b610bc185610438565b15610be1578460405163447aa77560e11b815260040161033791906112ec565b60006040518060a00160405280878152602001868152602001858152602001846001600160a01b0316815260200183604051602001610c2091906111e3565b60408051601f198184030181529190528051602091820120909152825460018101845560009384529281902082518051939460050290910192610c669284920190610ddb565b506020828101518051610c7f9260018501920190610ddb565b5060408201518051610c9b916002840191602090910190610ddb565b5060608201516003820180546001600160a01b0319166001600160a01b039092169190911790556080909101516004909101556040517f514f39e68fbcd350195786f90c380a3fd2c65dbe0842f3c851858b3ea0fdc36590610d049087908790879087906110c2565b60405180910390a15050505050565b828054610d1f90611215565b90600052602060002090601f016020900481019282610d415760008555610d8e565b82601f10610d525780548555610d8e565b82800160010185558215610d8e57600052602060002091601f016020900482015b82811115610d8e578254825591600101919060010190610d73565b50610d9a929150610e4f565b5090565b508054610daa90611215565b6000825580601f10610dba575050565b601f016020900490600052602060002090810190610dd89190610e4f565b50565b828054610de790611215565b90600052602060002090601f016020900481019282610e095760008555610d8e565b82601f10610e2257805160ff1916838001178555610d8e565b82800160010185558215610d8e579182015b82811115610d8e578251825591602001919060010190610e34565b5b80821115610d9a5760008155600101610e50565b634e487b7160e01b600052604160045260246000fd5b600082601f830112610e8b57600080fd5b813567ffffffffffffffff80821115610ea657610ea6610e64565b604051601f8301601f19908116603f01168101908282118183101715610ece57610ece610e64565b81604052838152866020858801011115610ee757600080fd5b836020870160208301376000602085830101528094505050505092915050565b600060208284031215610f1957600080fd5b813567ffffffffffffffff811115610f3057600080fd5b610f3c84828501610e7a565b949350505050565b60008060408385031215610f5757600080fd5b823567ffffffffffffffff80821115610f6f57600080fd5b610f7b86838701610e7a565b93506020850135915080821115610f9157600080fd5b50610f9e85828601610e7a565b9150509250929050565b60005b83811015610fc3578181015183820152602001610fab565b83811115610fd2576000848401525b50505050565b60008151808452610ff0816020860160208601610fa8565b601f01601f19169290920160200192915050565b60006020808301818452808551808352604092508286019150828160051b87010184880160005b838110156110b457603f19898403018552815160a0815181865261105182870182610fd8565b915050888201518582038a8701526110698282610fd8565b91505087820151858203898701526110818282610fd8565b6060848101516001600160a01b03169088015260809384015193909601929092525050938601939086019060010161102b565b509098975050505050505050565b6080815260006110d56080830187610fd8565b82810360208401526110e78187610fd8565b905082810360408401526110fb8186610fd8565b91505060018060a01b038316606083015295945050505050565b600080600080600060a0868803121561112d57600080fd5b853567ffffffffffffffff8082111561114557600080fd5b61115189838a01610e7a565b9650602088013591508082111561116757600080fd5b61117389838a01610e7a565b9550604088013591508082111561118957600080fd5b61119589838a01610e7a565b9450606088013591506001600160a01b03821682146111b357600080fd5b909250608087013590808211156111c957600080fd5b506111d688828901610e7a565b9150509295509295909350565b600082516111f5818460208701610fa8565b9190910192915050565b634e487b7160e01b600052603260045260246000fd5b600181811c9082168061122957607f821691505b6020821081141561124a57634e487b7160e01b600052602260045260246000fd5b50919050565b600080835481600182811c91508083168061126c57607f831692505b602080841082141561128c57634e487b7160e01b86526022600452602486fd5b8180156112a057600181146112b1576112de565b60ff198616895284890196506112de565b60008a81526020902060005b868110156112d65781548b8201529085019083016112bd565b505084890196505b509498975050505050505050565b6020815260006112ff6020830184610fd8565b9392505050565b634e487b7160e01b600052601160045260246000fd5b60008282101561132e5761132e611306565b500390565b634e487b7160e01b600052603160045260246000fd5b600060001982141561135d5761135d611306565b506001019056fea2646970667358221220e9d1e520238d4b64f12df80eee61a94b6f173126f89a368b43f429cbbed36f6b64736f6c63430008090033",
  "linkReferences": {},
  "deployedLinkReferences": {}
}