{
  "_format": "hh-sol-artifact-1",
  "contractName": "AdminLogin",
  "sourceName": "contracts/AdminLogin.sol",
  "abi": [
    {
      "inputs": [
        {
          "internalType": "string",
          "name": "email",
          "type": "string"
        }
      ],
      "name": "AdminNotFound",
      "type": "error"
    },
    {
      "inputs": [
        {
          "internalType": "string",
          "name": "email",
          "type": "string"
        }
      ],
      "name": "EmailAlreadyRegistered",
      "type": "error"
    },
    {
      "inputs": [
        {
          "internalType": "string",
          "name": "message",
          "type": "string"
        }
      ],
      "name": "InvalidInput",
      "type": "error"
    },
    {
      "anonymous": false,
      "inputs": [
        {
          "indexed": false,
          "internalType": "string",
          "name": "email",
          "type": "string"
        },
        {
          "indexed": false,
          "internalType": "string",
          "name": "phoneNumber",
          "type": "string"
        },
        {
          "indexed": false,
          "internalType": "string",
          "name": "storeName",
          "type": "string"
        }
      ],
      "name": "AdminRegistered",
      "type": "event"
    },
    {
      "anonymous": false,
      "inputs": [
        {
          "indexed": false,
          "internalType": "string",
          "name": "email",
          "type": "string"
        }
      ],
      "name": "AdminRemoved",
      "type": "event"
    },
    {
      "inputs": [
        {
          "internalType": "string",
          "name": "_email",
          "type": "string"
        }
      ],
      "name": "getAdminByEmail",
      "outputs": [
        {
          "internalType": "string",
          "name": "",
          "type": "string"
        },
        {
          "internalType": "string",
          "name": "",
          "type": "string"
        },
        {
          "internalType": "string",
          "name": "",
          "type": "string"
        }
      ],
      "stateMutability": "view",
      "type": "function"
    },
    {
      "inputs": [],
      "name": "getAllAdmins",
      "outputs": [
        {
          "components": [
            {
              "internalType": "string",
              "name": "email",
              "type": "string"
            },
            {
              "internalType": "string",
              "name": "phoneNumber",
              "type": "string"
            },
            {
              "internalType": "string",
              "name": "storeName",
              "type": "string"
            },
            {
              "internalType": "bytes32",
              "name": "passwordHash",
              "type": "bytes32"
            }
          ],
          "internalType": "struct AdminLogin.Admin[]",
          "name": "",
          "type": "tuple[]"
        }
      ],
      "stateMutability": "view",
      "type": "function"
    },
    {
      "inputs": [
        {
          "internalType": "string",
          "name": "_email",
          "type": "string"
        }
      ],
      "name": "isEmailRegistered",
      "outputs": [
        {
          "internalType": "bool",
          "name": "",
          "type": "bool"
        }
      ],
      "stateMutability": "view",
      "type": "function"
    },
    {
      "inputs": [
        {
          "internalType": "string",
          "name": "_email",
          "type": "string"
        },
        {
          "internalType": "string",
          "name": "_phoneNumber",
          "type": "string"
        },
        {
          "internalType": "string",
          "name": "_storeName",
          "type": "string"
        },
        {
          "internalType": "string",
          "name": "_password",
          "type": "string"
        }
      ],
      "name": "registerAdmin",
      "outputs": [],
      "stateMutability": "nonpayable",
      "type": "function"
    },
    {
      "inputs": [
        {
          "internalType": "string",
          "name": "_email",
          "type": "string"
        }
      ],
      "name": "removeAdminByEmail",
      "outputs": [],
      "stateMutability": "nonpayable",
      "type": "function"
    },
    {
      "inputs": [
        {
          "internalType": "string",
          "name": "_email",
          "type": "string"
        },
        {
          "internalType": "string",
          "name": "_password",
          "type": "string"
        }
      ],
      "name": "validateLogin",
      "outputs": [
        {
          "internalType": "bool",
          "name": "",
          "type": "bool"
        }
      ],
      "stateMutability": "view",
      "type": "function"
    }
  ],
  "bytecode": "0x608060405234801561001057600080fd5b50611238806100206000396000f3fe608060405234801561001057600080fd5b50600436106100625760003560e01c80638f7eb09514610067578063b31a1ce01461007c578063c8fbab4b1461008f578063df3cdad7146100b7578063e9523c97146100ca578063ec8a2807146100df575b600080fd5b61007a610075366004610de8565b610101565b005b61007a61008a366004610e95565b61035c565b6100a261009d366004610ed2565b61055a565b60405190151581526020015b60405180910390f35b6100a26100c5366004610e95565b610652565b6100d26106fb565b6040516100ae9190610f92565b6100f26100ed366004610e95565b61091a565b6040516100ae9392919061103e565b835161014d5760405163d647364f60e01b8152602060048201526015602482015274456d61696c2063616e6e6f7420626520656d70747960581b60448201526064015b60405180910390fd5b825161019c5760405163d647364f60e01b815260206004820152601c60248201527f50686f6e65206e756d6265722063616e6e6f7420626520656d707479000000006044820152606401610144565b81516101eb5760405163d647364f60e01b815260206004820152601a60248201527f53746f7265206e616d652063616e6e6f7420626520656d7074790000000000006044820152606401610144565b805161023a5760405163d647364f60e01b815260206004820152601860248201527f50617373776f72642063616e6e6f7420626520656d70747900000000000000006044820152606401610144565b61024384610652565b15610263578360405163447aa77560e11b81526004016101449190611081565b6000604051806080016040528086815260200185815260200184815260200183604051602001610293919061109b565b60408051601f1981840301815291905280516020918201209091528254600181018455600093845292819020825180519394600402909101926102d99284920190610bf4565b5060208281015180516102f29260018501920190610bf4565b506040820151805161030e916002840191602090910190610bf4565b506060820151816003015550507f261c0a8e5c59fab98f3da78bcc8d5f6d8497057f0a2b3bb802a36ad99be3803384848460405161034e9392919061103e565b60405180910390a150505050565b60005b60005481101561053e578160405160200161037a919061109b565b60405160208183030381529060405280519060200120600082815481106103a3576103a36110b7565b90600052602060002090600402016000016040516020016103c49190611108565b60405160208183030381529060405280519060200120141561052c577f4ff477bb0822de7ad9fd283bdcc44d7c570253e8d30277c2dfaecc075795dffc8260405161040f9190611081565b60405180910390a160008054610427906001906111ba565b81548110610437576104376110b7565b906000526020600020906004020160008281548110610458576104586110b7565b9060005260206000209060040201600082018160000190805461047a906110cd565b610485929190610c78565b50600182018160010190805461049a906110cd565b6104a5929190610c78565b5060028201816002019080546104ba906110cd565b6104c5929190610c78565b5060039182015491015560008054806104e0576104e06111d1565b600082815260208120600019909201916004830201906105008282610cf3565b61050e600183016000610cf3565b61051c600283016000610cf3565b6003820160009055505090555050565b80610536816111e7565b91505061035f565b5080604051630f8ba3c160e31b81526004016101449190611081565b6000805b6000548110156106465783604051602001610579919061109b565b60405160208183030381529060405280519060200120600082815481106105a2576105a26110b7565b90600052602060002090600402016000016040516020016105c39190611108565b60405160208183030381529060405280519060200120141561063457826040516020016105f0919061109b565b6040516020818303038152906040528051906020012060008281548110610619576106196110b7565b9060005260206000209060040201600301541491505061064c565b8061063e816111e7565b91505061055e565b50600090505b92915050565b6000805b6000548110156106f25782604051602001610671919061109b565b604051602081830303815290604052805190602001206000828154811061069a5761069a6110b7565b90600052602060002090600402016000016040516020016106bb9190611108565b6040516020818303038152906040528051906020012014156106e05750600192915050565b806106ea816111e7565b915050610656565b50600092915050565b60606000805480602002602001604051908101604052809291908181526020016000905b828210156109115783829060005260206000209060040201604051806080016040529081600082018054610752906110cd565b80601f016020809104026020016040519081016040528092919081815260200182805461077e906110cd565b80156107cb5780601f106107a0576101008083540402835291602001916107cb565b820191906000526020600020905b8154815290600101906020018083116107ae57829003601f168201915b505050505081526020016001820180546107e4906110cd565b80601f0160208091040260200160405190810160405280929190818152602001828054610810906110cd565b801561085d5780601f106108325761010080835404028352916020019161085d565b820191906000526020600020905b81548152906001019060200180831161084057829003601f168201915b50505050508152602001600282018054610876906110cd565b80601f01602080910402602001604051908101604052809291908181526020018280546108a2906110cd565b80156108ef5780601f106108c4576101008083540402835291602001916108ef565b820191906000526020600020905b8154815290600101906020018083116108d257829003601f168201915b505050505081526020016003820154815250508152602001906001019061071f565b50505050905090565b606080606060005b600054811015610bd1578460405160200161093d919061109b565b6040516020818303038152906040528051906020012060008281548110610966576109666110b7565b90600052602060002090600402016000016040516020016109879190611108565b604051602081830303815290604052805190602001201415610bbf57600081815481106109b6576109b66110b7565b9060005260206000209060040201600001600082815481106109da576109da6110b7565b9060005260206000209060040201600101600083815481106109fe576109fe6110b7565b9060005260206000209060040201600201828054610a1b906110cd565b80601f0160208091040260200160405190810160405280929190818152602001828054610a47906110cd565b8015610a945780601f10610a6957610100808354040283529160200191610a94565b820191906000526020600020905b815481529060010190602001808311610a7757829003601f168201915b50505050509250818054610aa7906110cd565b80601f0160208091040260200160405190810160405280929190818152602001828054610ad3906110cd565b8015610b205780601f10610af557610100808354040283529160200191610b20565b820191906000526020600020905b815481529060010190602001808311610b0357829003601f168201915b50505050509150808054610b33906110cd565b80601f0160208091040260200160405190810160405280929190818152602001828054610b5f906110cd565b8015610bac5780601f10610b8157610100808354040283529160200191610bac565b820191906000526020600020905b815481529060010190602001808311610b8f57829003601f168201915b5050505050905093509350935050610bed565b80610bc9816111e7565b915050610922565b5083604051630f8ba3c160e31b81526004016101449190611081565b9193909250565b828054610c00906110cd565b90600052602060002090601f016020900481019282610c225760008555610c68565b82601f10610c3b57805160ff1916838001178555610c68565b82800160010185558215610c68579182015b82811115610c68578251825591602001919060010190610c4d565b50610c74929150610d30565b5090565b828054610c84906110cd565b90600052602060002090601f016020900481019282610ca65760008555610c68565b82601f10610cb75780548555610c68565b82800160010185558215610c6857600052602060002091601f016020900482015b82811115610c68578254825591600101919060010190610cd8565b508054610cff906110cd565b6000825580601f10610d0f575050565b601f016020900490600052602060002090810190610d2d9190610d30565b50565b5b80821115610c745760008155600101610d31565b634e487b7160e01b600052604160045260246000fd5b600082601f830112610d6c57600080fd5b813567ffffffffffffffff80821115610d8757610d87610d45565b604051601f8301601f19908116603f01168101908282118183101715610daf57610daf610d45565b81604052838152866020858801011115610dc857600080fd5b836020870160208301376000602085830101528094505050505092915050565b60008060008060808587031215610dfe57600080fd5b843567ffffffffffffffff80821115610e1657600080fd5b610e2288838901610d5b565b95506020870135915080821115610e3857600080fd5b610e4488838901610d5b565b94506040870135915080821115610e5a57600080fd5b610e6688838901610d5b565b93506060870135915080821115610e7c57600080fd5b50610e8987828801610d5b565b91505092959194509250565b600060208284031215610ea757600080fd5b813567ffffffffffffffff811115610ebe57600080fd5b610eca84828501610d5b565b949350505050565b60008060408385031215610ee557600080fd5b823567ffffffffffffffff80821115610efd57600080fd5b610f0986838701610d5b565b93506020850135915080821115610f1f57600080fd5b50610f2c85828601610d5b565b9150509250929050565b60005b83811015610f51578181015183820152602001610f39565b83811115610f60576000848401525b50505050565b60008151808452610f7e816020860160208601610f36565b601f01601f19169290920160200192915050565b60006020808301818452808551808352604092508286019150828160051b87010184880160005b8381101561103057603f19898403018552815160808151818652610fdf82870182610f66565b915050888201518582038a870152610ff78282610f66565b915050878201518582038987015261100f8282610f66565b60609384015196909301959095525094870194925090860190600101610fb9565b509098975050505050505050565b6060815260006110516060830186610f66565b82810360208401526110638186610f66565b905082810360408401526110778185610f66565b9695505050505050565b6020815260006110946020830184610f66565b9392505050565b600082516110ad818460208701610f36565b9190910192915050565b634e487b7160e01b600052603260045260246000fd5b600181811c908216806110e157607f821691505b6020821081141561110257634e487b7160e01b600052602260045260246000fd5b50919050565b600080835481600182811c91508083168061112457607f831692505b602080841082141561114457634e487b7160e01b86526022600452602486fd5b818015611158576001811461116957611196565b60ff19861689528489019650611196565b60008a81526020902060005b8681101561118e5781548b820152908501908301611175565b505084890196505b509498975050505050505050565b634e487b7160e01b600052601160045260246000fd5b6000828210156111cc576111cc6111a4565b500390565b634e487b7160e01b600052603160045260246000fd5b60006000198214156111fb576111fb6111a4565b506001019056fea26469706673582212205144568b010514bd9927f0c051658609023814f54eaa7cbb0c154840f145df0564736f6c63430008090033",
  "linkReferences": {},
  "deployedLinkReferences": {}
}