{
  "_format": "hh-sol-artifact-1",
  "contractName": "DeliveryManLogin",
  "sourceName": "contracts/DeliveryManLogin.sol",
  "abi": [
    {
      "inputs": [
        {
          "internalType": "string",
          "name": "email",
          "type": "string"
        }
      ],
      "name": "DeliveryManNotFound",
      "type": "error"
    },
    {
      "inputs": [
        {
          "internalType": "string",
          "name": "email",
          "type": "string"
        }
      ],
      "name": "EmailAlreadyRegistered",
      "type": "error"
    },
    {
      "inputs": [
        {
          "internalType": "string",
          "name": "message",
          "type": "string"
        }
      ],
      "name": "InvalidInput",
      "type": "error"
    },
    {
      "anonymous": false,
      "inputs": [
        {
          "indexed": false,
          "internalType": "string",
          "name": "email",
          "type": "string"
        },
        {
          "indexed": false,
          "internalType": "string",
          "name": "phoneNumber",
          "type": "string"
        },
        {
          "indexed": false,
          "internalType": "string",
          "name": "vehicleType",
          "type": "string"
        }
      ],
      "name": "DeliveryManRegistered",
      "type": "event"
    },
    {
      "anonymous": false,
      "inputs": [
        {
          "indexed": false,
          "internalType": "string",
          "name": "email",
          "type": "string"
        }
      ],
      "name": "DeliveryManRemoved",
      "type": "event"
    },
    {
      "inputs": [],
      "name": "getAllDeliveryMen",
      "outputs": [
        {
          "components": [
            {
              "internalType": "string",
              "name": "email",
              "type": "string"
            },
            {
              "internalType": "string",
              "name": "phoneNumber",
              "type": "string"
            },
            {
              "internalType": "string",
              "name": "vehicleType",
              "type": "string"
            },
            {
              "internalType": "bytes32",
              "name": "passwordHash",
              "type": "bytes32"
            }
          ],
          "internalType": "struct DeliveryManLogin.DeliveryMan[]",
          "name": "",
          "type": "tuple[]"
        }
      ],
      "stateMutability": "view",
      "type": "function"
    },
    {
      "inputs": [
        {
          "internalType": "string",
          "name": "_email",
          "type": "string"
        }
      ],
      "name": "getDeliveryManByEmail",
      "outputs": [
        {
          "internalType": "string",
          "name": "",
          "type": "string"
        },
        {
          "internalType": "string",
          "name": "",
          "type": "string"
        },
        {
          "internalType": "string",
          "name": "",
          "type": "string"
        }
      ],
      "stateMutability": "view",
      "type": "function"
    },
    {
      "inputs": [
        {
          "internalType": "string",
          "name": "_email",
          "type": "string"
        }
      ],
      "name": "isEmailRegistered",
      "outputs": [
        {
          "internalType": "bool",
          "name": "",
          "type": "bool"
        }
      ],
      "stateMutability": "view",
      "type": "function"
    },
    {
      "inputs": [
        {
          "internalType": "string",
          "name": "_email",
          "type": "string"
        },
        {
          "internalType": "string",
          "name": "_phoneNumber",
          "type": "string"
        },
        {
          "internalType": "string",
          "name": "_vehicleType",
          "type": "string"
        },
        {
          "internalType": "string",
          "name": "_password",
          "type": "string"
        }
      ],
      "name": "registerDeliveryMan",
      "outputs": [],
      "stateMutability": "nonpayable",
      "type": "function"
    },
    {
      "inputs": [
        {
          "internalType": "string",
          "name": "_email",
          "type": "string"
        }
      ],
      "name": "removeDeliveryManByEmail",
      "outputs": [],
      "stateMutability": "nonpayable",
      "type": "function"
    },
    {
      "inputs": [
        {
          "internalType": "string",
          "name": "_email",
          "type": "string"
        },
        {
          "internalType": "string",
          "name": "_password",
          "type": "string"
        }
      ],
      "name": "validateLogin",
      "outputs": [
        {
          "internalType": "bool",
          "name": "",
          "type": "bool"
        }
      ],
      "stateMutability": "view",
      "type": "function"
    }
  ],
  "bytecode": "0x608060405234801561001057600080fd5b5061123c806100206000396000f3fe608060405234801561001057600080fd5b50600436106100625760003560e01c8063266e719514610067578063445f8c321461007c5780635398d0381461008f5780638a5b5784146100ad578063c8fbab4b146100cf578063df3cdad7146100f2575b600080fd5b61007a610075366004610dec565b610105565b005b61007a61008a366004610e99565b610360565b61009761055e565b6040516100a49190610f32565b60405180910390f35b6100c06100bb366004610e99565b61077d565b6040516100a493929190610fde565b6100e26100dd366004611021565b610a57565b60405190151581526020016100a4565b6100e2610100366004610e99565b610b4f565b83516101515760405163d647364f60e01b8152602060048201526015602482015274456d61696c2063616e6e6f7420626520656d70747960581b60448201526064015b60405180910390fd5b82516101a05760405163d647364f60e01b815260206004820152601c60248201527f50686f6e65206e756d6265722063616e6e6f7420626520656d707479000000006044820152606401610148565b81516101ef5760405163d647364f60e01b815260206004820152601c60248201527f56656869636c6520747970652063616e6e6f7420626520656d707479000000006044820152606401610148565b805161023e5760405163d647364f60e01b815260206004820152601860248201527f50617373776f72642063616e6e6f7420626520656d70747900000000000000006044820152606401610148565b61024784610b4f565b15610267578360405163447aa77560e11b81526004016101489190611085565b6000604051806080016040528086815260200185815260200184815260200183604051602001610297919061109f565b60408051601f1981840301815291905280516020918201209091528254600181018455600093845292819020825180519394600402909101926102dd9284920190610bf8565b5060208281015180516102f69260018501920190610bf8565b5060408201518051610312916002840191602090910190610bf8565b506060820151816003015550507f97bc44c5e259271c64160b05231f0b942e49591582558aa61728b5fe920583f684848460405161035293929190610fde565b60405180910390a150505050565b60005b600054811015610542578160405160200161037e919061109f565b60405160208183030381529060405280519060200120600082815481106103a7576103a76110bb565b90600052602060002090600402016000016040516020016103c8919061110c565b604051602081830303815290604052805190602001201415610530577fd7040c01ca121dd67d9a7a9656c5c413f28da00a5e6223803c1dc1ce232bfe41826040516104139190611085565b60405180910390a16000805461042b906001906111be565b8154811061043b5761043b6110bb565b90600052602060002090600402016000828154811061045c5761045c6110bb565b9060005260206000209060040201600082018160000190805461047e906110d1565b610489929190610c7c565b50600182018160010190805461049e906110d1565b6104a9929190610c7c565b5060028201816002019080546104be906110d1565b6104c9929190610c7c565b5060039182015491015560008054806104e4576104e46111d5565b600082815260208120600019909201916004830201906105048282610cf7565b610512600183016000610cf7565b610520600283016000610cf7565b6003820160009055505090555050565b8061053a816111eb565b915050610363565b5080604051634f8dfe0360e01b81526004016101489190611085565b60606000805480602002602001604051908101604052809291908181526020016000905b8282101561077457838290600052602060002090600402016040518060800160405290816000820180546105b5906110d1565b80601f01602080910402602001604051908101604052809291908181526020018280546105e1906110d1565b801561062e5780601f106106035761010080835404028352916020019161062e565b820191906000526020600020905b81548152906001019060200180831161061157829003601f168201915b50505050508152602001600182018054610647906110d1565b80601f0160208091040260200160405190810160405280929190818152602001828054610673906110d1565b80156106c05780601f10610695576101008083540402835291602001916106c0565b820191906000526020600020905b8154815290600101906020018083116106a357829003601f168201915b505050505081526020016002820180546106d9906110d1565b80601f0160208091040260200160405190810160405280929190818152602001828054610705906110d1565b80156107525780601f1061072757610100808354040283529160200191610752565b820191906000526020600020905b81548152906001019060200180831161073557829003601f168201915b5050505050815260200160038201548152505081526020019060010190610582565b50505050905090565b606080606060005b600054811015610a3457846040516020016107a0919061109f565b60405160208183030381529060405280519060200120600082815481106107c9576107c96110bb565b90600052602060002090600402016000016040516020016107ea919061110c565b604051602081830303815290604052805190602001201415610a225760008181548110610819576108196110bb565b90600052602060002090600402016000016000828154811061083d5761083d6110bb565b906000526020600020906004020160010160008381548110610861576108616110bb565b906000526020600020906004020160020182805461087e906110d1565b80601f01602080910402602001604051908101604052809291908181526020018280546108aa906110d1565b80156108f75780601f106108cc576101008083540402835291602001916108f7565b820191906000526020600020905b8154815290600101906020018083116108da57829003601f168201915b5050505050925081805461090a906110d1565b80601f0160208091040260200160405190810160405280929190818152602001828054610936906110d1565b80156109835780601f1061095857610100808354040283529160200191610983565b820191906000526020600020905b81548152906001019060200180831161096657829003601f168201915b50505050509150808054610996906110d1565b80601f01602080910402602001604051908101604052809291908181526020018280546109c2906110d1565b8015610a0f5780601f106109e457610100808354040283529160200191610a0f565b820191906000526020600020905b8154815290600101906020018083116109f257829003601f168201915b5050505050905093509350935050610a50565b80610a2c816111eb565b915050610785565b5083604051634f8dfe0360e01b81526004016101489190611085565b9193909250565b6000805b600054811015610b435783604051602001610a76919061109f565b6040516020818303038152906040528051906020012060008281548110610a9f57610a9f6110bb565b9060005260206000209060040201600001604051602001610ac0919061110c565b604051602081830303815290604052805190602001201415610b315782604051602001610aed919061109f565b6040516020818303038152906040528051906020012060008281548110610b1657610b166110bb565b90600052602060002090600402016003015414915050610b49565b80610b3b816111eb565b915050610a5b565b50600090505b92915050565b6000805b600054811015610bef5782604051602001610b6e919061109f565b6040516020818303038152906040528051906020012060008281548110610b9757610b976110bb565b9060005260206000209060040201600001604051602001610bb8919061110c565b604051602081830303815290604052805190602001201415610bdd5750600192915050565b80610be7816111eb565b915050610b53565b50600092915050565b828054610c04906110d1565b90600052602060002090601f016020900481019282610c265760008555610c6c565b82601f10610c3f57805160ff1916838001178555610c6c565b82800160010185558215610c6c579182015b82811115610c6c578251825591602001919060010190610c51565b50610c78929150610d34565b5090565b828054610c88906110d1565b90600052602060002090601f016020900481019282610caa5760008555610c6c565b82601f10610cbb5780548555610c6c565b82800160010185558215610c6c57600052602060002091601f016020900482015b82811115610c6c578254825591600101919060010190610cdc565b508054610d03906110d1565b6000825580601f10610d13575050565b601f016020900490600052602060002090810190610d319190610d34565b50565b5b80821115610c785760008155600101610d35565b634e487b7160e01b600052604160045260246000fd5b600082601f830112610d7057600080fd5b813567ffffffffffffffff80821115610d8b57610d8b610d49565b604051601f8301601f19908116603f01168101908282118183101715610db357610db3610d49565b81604052838152866020858801011115610dcc57600080fd5b836020870160208301376000602085830101528094505050505092915050565b60008060008060808587031215610e0257600080fd5b843567ffffffffffffffff80821115610e1a57600080fd5b610e2688838901610d5f565b95506020870135915080821115610e3c57600080fd5b610e4888838901610d5f565b94506040870135915080821115610e5e57600080fd5b610e6a88838901610d5f565b93506060870135915080821115610e8057600080fd5b50610e8d87828801610d5f565b91505092959194509250565b600060208284031215610eab57600080fd5b813567ffffffffffffffff811115610ec257600080fd5b610ece84828501610d5f565b949350505050565b60005b83811015610ef1578181015183820152602001610ed9565b83811115610f00576000848401525b50505050565b60008151808452610f1e816020860160208601610ed6565b601f01601f19169290920160200192915050565b60006020808301818452808551808352604092508286019150828160051b87010184880160005b83811015610fd057603f19898403018552815160808151818652610f7f82870182610f06565b915050888201518582038a870152610f978282610f06565b9150508782015185820389870152610faf8282610f06565b60609384015196909301959095525094870194925090860190600101610f59565b509098975050505050505050565b606081526000610ff16060830186610f06565b82810360208401526110038186610f06565b905082810360408401526110178185610f06565b9695505050505050565b6000806040838503121561103457600080fd5b823567ffffffffffffffff8082111561104c57600080fd5b61105886838701610d5f565b9350602085013591508082111561106e57600080fd5b5061107b85828601610d5f565b9150509250929050565b6020815260006110986020830184610f06565b9392505050565b600082516110b1818460208701610ed6565b9190910192915050565b634e487b7160e01b600052603260045260246000fd5b600181811c908216806110e557607f821691505b6020821081141561110657634e487b7160e01b600052602260045260246000fd5b50919050565b600080835481600182811c91508083168061112857607f831692505b602080841082141561114857634e487b7160e01b86526022600452602486fd5b81801561115c576001811461116d5761119a565b60ff1986168952848901965061119a565b60008a81526020902060005b868110156111925781548b820152908501908301611179565b505084890196505b509498975050505050505050565b634e487b7160e01b600052601160045260246000fd5b6000828210156111d0576111d06111a8565b500390565b634e487b7160e01b600052603160045260246000fd5b60006000198214156111ff576111ff6111a8565b506001019056fea26469706673582212205f64405cdd29d6e3e364eb28edbc3f7cd850cfca9bf8759f750a836cb93cd1fe64736f6c63430008090033",
  "linkReferences": {},
  "deployedLinkReferences": {}
}