{
  "_format": "hh-sol-artifact-1",
  "contractName": "Tracking",
  "sourceName": "contracts/Tracking.sol",
  "abi": [
    {
      "inputs": [],
      "stateMutability": "nonpayable",
      "type": "constructor"
    },
    {
      "anonymous": false,
      "inputs": [
        {
          "indexed": true,
          "internalType": "uint256",
          "name": "id",
          "type": "uint256"
        },
        {
          "indexed": true,
          "internalType": "address",
          "name": "sender",
          "type": "address"
        },
        {
          "indexed": true,
          "internalType": "address",
          "name": "receiver",
          "type": "address"
        },
        {
          "indexed": false,
          "internalType": "uint256",
          "name": "pickupTime",
          "type": "uint256"
        },
        {
          "indexed": false,
          "internalType": "uint256",
          "name": "distance",
          "type": "uint256"
        },
        {
          "indexed": false,
          "internalType": "uint256",
          "name": "price",
          "type": "uint256"
        },
        {
          "indexed": false,
          "internalType": "string",
          "name": "start",
          "type": "string"
        },
        {
          "indexed": false,
          "internalType": "string",
          "name": "destination",
          "type": "string"
        }
      ],
      "name": "ShipmentCreated",
      "type": "event"
    },
    {
      "anonymous": false,
      "inputs": [
        {
          "indexed": true,
          "internalType": "uint256",
          "name": "id",
          "type": "uint256"
        },
        {
          "indexed": true,
          "internalType": "address",
          "name": "sender",
          "type": "address"
        },
        {
          "indexed": true,
          "internalType": "address",
          "name": "receiver",
          "type": "address"
        },
        {
          "indexed": false,
          "internalType": "uint256",
          "name": "deliveryTime",
          "type": "uint256"
        }
      ],
      "name": "ShipmentDelivered",
      "type": "event"
    },
    {
      "anonymous": false,
      "inputs": [
        {
          "indexed": true,
          "internalType": "uint256",
          "name": "id",
          "type": "uint256"
        },
        {
          "indexed": true,
          "internalType": "address",
          "name": "sender",
          "type": "address"
        },
        {
          "indexed": true,
          "internalType": "address",
          "name": "receiver",
          "type": "address"
        }
      ],
      "name": "ShipmentInTransit",
      "type": "event"
    },
    {
      "anonymous": false,
      "inputs": [
        {
          "indexed": true,
          "internalType": "uint256",
          "name": "id",
          "type": "uint256"
        },
        {
          "indexed": true,
          "internalType": "address",
          "name": "sender",
          "type": "address"
        },
        {
          "indexed": true,
          "internalType": "address",
          "name": "receiver",
          "type": "address"
        },
        {
          "indexed": false,
          "internalType": "uint256",
          "name": "amount",
          "type": "uint256"
        }
      ],
      "name": "ShipmentPaid",
      "type": "event"
    },
    {
      "anonymous": false,
      "inputs": [
        {
          "indexed": true,
          "internalType": "uint256",
          "name": "id",
          "type": "uint256"
        },
        {
          "indexed": false,
          "internalType": "string",
          "name": "deliveryPerson",
          "type": "string"
        }
      ],
      "name": "ShipmentPickedUp",
      "type": "event"
    },
    {
      "inputs": [
        {
          "internalType": "uint256",
          "name": "",
          "type": "uint256"
        }
      ],
      "name": "allShipments",
      "outputs": [
        {
          "internalType": "uint256",
          "name": "id",
          "type": "uint256"
        },
        {
          "internalType": "address",
          "name": "sender",
          "type": "address"
        },
        {
          "internalType": "address",
          "name": "receiver",
          "type": "address"
        },
        {
          "internalType": "uint256",
          "name": "pickupTime",
          "type": "uint256"
        },
        {
          "internalType": "uint256",
          "name": "deliveryTime",
          "type": "uint256"
        },
        {
          "internalType": "uint256",
          "name": "distance",
          "type": "uint256"
        },
        {
          "internalType": "uint256",
          "name": "price",
          "type": "uint256"
        },
        {
          "internalType": "string",
          "name": "start",
          "type": "string"
        },
        {
          "internalType": "string",
          "name": "destination",
          "type": "string"
        },
        {
          "internalType": "enum Tracking.ShipmentStatus",
          "name": "status",
          "type": "uint8"
        },
        {
          "internalType": "bool",
          "name": "isPaid",
          "type": "bool"
        }
      ],
      "stateMutability": "view",
      "type": "function"
    },
    {
      "inputs": [
        {
          "internalType": "uint256",
          "name": "_id",
          "type": "uint256"
        }
      ],
      "name": "completeShipment",
      "outputs": [],
      "stateMutability": "nonpayable",
      "type": "function"
    },
    {
      "inputs": [
        {
          "internalType": "address",
          "name": "_receiver",
          "type": "address"
        },
        {
          "internalType": "uint256",
          "name": "_pickupTime",
          "type": "uint256"
        },
        {
          "internalType": "uint256",
          "name": "_distance",
          "type": "uint256"
        },
        {
          "internalType": "uint256",
          "name": "_price",
          "type": "uint256"
        },
        {
          "internalType": "string",
          "name": "_start",
          "type": "string"
        },
        {
          "internalType": "string",
          "name": "_destination",
          "type": "string"
        }
      ],
      "name": "createShipment",
      "outputs": [],
      "stateMutability": "payable",
      "type": "function"
    },
    {
      "inputs": [],
      "name": "getAllTransactions",
      "outputs": [
        {
          "components": [
            {
              "internalType": "uint256",
              "name": "id",
              "type": "uint256"
            },
            {
              "internalType": "address",
              "name": "sender",
              "type": "address"
            },
            {
              "internalType": "address",
              "name": "receiver",
              "type": "address"
            },
            {
              "internalType": "uint256",
              "name": "pickupTime",
              "type": "uint256"
            },
            {
              "internalType": "uint256",
              "name": "deliveryTime",
              "type": "uint256"
            },
            {
              "internalType": "uint256",
              "name": "distance",
              "type": "uint256"
            },
            {
              "internalType": "uint256",
              "name": "price",
              "type": "uint256"
            },
            {
              "internalType": "string",
              "name": "start",
              "type": "string"
            },
            {
              "internalType": "string",
              "name": "destination",
              "type": "string"
            },
            {
              "internalType": "enum Tracking.ShipmentStatus",
              "name": "status",
              "type": "uint8"
            },
            {
              "internalType": "bool",
              "name": "isPaid",
              "type": "bool"
            }
          ],
          "internalType": "struct Tracking.Shipment[]",
          "name": "",
          "type": "tuple[]"
        }
      ],
      "stateMutability": "view",
      "type": "function"
    },
    {
      "inputs": [
        {
          "internalType": "uint256",
          "name": "_id",
          "type": "uint256"
        }
      ],
      "name": "getShipment",
      "outputs": [
        {
          "internalType": "uint256",
          "name": "",
          "type": "uint256"
        },
        {
          "internalType": "address",
          "name": "",
          "type": "address"
        },
        {
          "internalType": "address",
          "name": "",
          "type": "address"
        },
        {
          "internalType": "uint256",
          "name": "",
          "type": "uint256"
        },
        {
          "internalType": "uint256",
          "name": "",
          "type": "uint256"
        },
        {
          "internalType": "uint256",
          "name": "",
          "type": "uint256"
        },
        {
          "internalType": "uint256",
          "name": "",
          "type": "uint256"
        },
        {
          "internalType": "string",
          "name": "",
          "type": "string"
        },
        {
          "internalType": "string",
          "name": "",
          "type": "string"
        },
        {
          "internalType": "enum Tracking.ShipmentStatus",
          "name": "",
          "type": "uint8"
        },
        {
          "internalType": "bool",
          "name": "",
          "type": "bool"
        }
      ],
      "stateMutability": "view",
      "type": "function"
    },
    {
      "inputs": [
        {
          "internalType": "string",
          "name": "_deliveryPersonEmail",
          "type": "string"
        }
      ],
      "name": "getShipmentsByDeliveryPerson",
      "outputs": [
        {
          "components": [
            {
              "internalType": "uint256",
              "name": "id",
              "type": "uint256"
            },
            {
              "internalType": "address",
              "name": "sender",
              "type": "address"
            },
            {
              "internalType": "address",
              "name": "receiver",
              "type": "address"
            },
            {
              "internalType": "uint256",
              "name": "pickupTime",
              "type": "uint256"
            },
            {
              "internalType": "uint256",
              "name": "deliveryTime",
              "type": "uint256"
            },
            {
              "internalType": "uint256",
              "name": "distance",
              "type": "uint256"
            },
            {
              "internalType": "uint256",
              "name": "price",
              "type": "uint256"
            },
            {
              "internalType": "string",
              "name": "start",
              "type": "string"
            },
            {
              "internalType": "string",
              "name": "destination",
              "type": "string"
            },
            {
              "internalType": "enum Tracking.ShipmentStatus",
              "name": "status",
              "type": "uint8"
            },
            {
              "internalType": "bool",
              "name": "isPaid",
              "type": "bool"
            }
          ],
          "internalType": "struct Tracking.Shipment[]",
          "name": "",
          "type": "tuple[]"
        }
      ],
      "stateMutability": "view",
      "type": "function"
    },
    {
      "inputs": [],
      "name": "getShipmentsCount",
      "outputs": [
        {
          "internalType": "uint256",
          "name": "",
          "type": "uint256"
        }
      ],
      "stateMutability": "view",
      "type": "function"
    },
    {
      "inputs": [
        {
          "internalType": "uint256",
          "name": "_id",
          "type": "uint256"
        },
        {
          "internalType": "string",
          "name": "_deliveryPersonEmail",
          "type": "string"
        }
      ],
      "name": "pickUpShipment",
      "outputs": [],
      "stateMutability": "nonpayable",
      "type": "function"
    },
    {
      "inputs": [],
      "name": "shipmentCount",
      "outputs": [
        {
          "internalType": "uint256",
          "name": "",
          "type": "uint256"
        }
      ],
      "stateMutability": "view",
      "type": "function"
    },
    {
      "inputs": [
        {
          "internalType": "uint256",
          "name": "",
          "type": "uint256"
        }
      ],
      "name": "shipmentToDeliveryPerson",
      "outputs": [
        {
          "internalType": "string",
          "name": "",
          "type": "string"
        }
      ],
      "stateMutability": "view",
      "type": "function"
    },
    {
      "inputs": [
        {
          "internalType": "uint256",
          "name": "_id",
          "type": "uint256"
        }
      ],
      "name": "startShipment",
      "outputs": [],
      "stateMutability": "nonpayable",
      "type": "function"
    }
  ],
  "bytecode": "0x608060405234801561001057600080fd5b506000600255611b2e806100256000396000f3fe60806040526004361061009c5760003560e01c806327506f531161006457806327506f53146101635780636253149d14610185578063a97c4a85146101a5578063aace20b7146101c5578063d6331a95146101e9578063f15456b5146101fe57600080fd5b80630612e03b146100a1578063092b3740146100e157806309abeffa146101015780630d5bd91714610123578063146ae10814610150575b600080fd5b3480156100ad57600080fd5b506100c16100bc36600461153d565b61021e565b6040516100d89b9a999897969594939291906115ea565b60405180910390f35b3480156100ed57600080fd5b506100c16100fc36600461153d565b6103ad565b34801561010d57600080fd5b5061012161011c36600461153d565b610649565b005b34801561012f57600080fd5b5061014361013e36600461153d565b610750565b6040516100d89190611673565b61012161015e366004611730565b6107ea565b34801561016f57600080fd5b50610178610b2d565b6040516100d891906117ce565b34801561019157600080fd5b506101216101a03660046118d1565b610d52565b3480156101b157600080fd5b506101786101c0366004611918565b610e7a565b3480156101d157600080fd5b506101db60025481565b6040519081526020016100d8565b3480156101f557600080fd5b506001546101db565b34801561020a57600080fd5b5061012161021936600461153d565b61120a565b6001818154811061022e57600080fd5b60009182526020909120600a9091020180546001820154600283015460038401546004850154600586015460068701546007880180549799506001600160a01b0396871698959096169693959294919390929061028a90611955565b80601f01602080910402602001604051908101604052809291908181526020018280546102b690611955565b80156103035780601f106102d857610100808354040283529160200191610303565b820191906000526020600020905b8154815290600101906020018083116102e657829003601f168201915b50505050509080600801805461031890611955565b80601f016020809104026020016040519081016040528092919081815260200182805461034490611955565b80156103915780601f1061036657610100808354040283529160200191610391565b820191906000526020600020905b81548152906001019060200180831161037457829003601f168201915b5050506009909301549192505060ff808216916101009004168b565b60008060008060008060006060806000806001805490508c106103eb5760405162461bcd60e51b81526004016103e290611990565b60405180910390fd5b600060018d81548110610400576104006119be565b60009182526020918290206040805161016081018252600a9093029091018054835260018101546001600160a01b03908116948401949094526002810154909316908201526003820154606082015260048201546080820152600582015460a0820152600682015460c082015260078201805491929160e08401919061048590611955565b80601f01602080910402602001604051908101604052809291908181526020018280546104b190611955565b80156104fe5780601f106104d3576101008083540402835291602001916104fe565b820191906000526020600020905b8154815290600101906020018083116104e157829003601f168201915b5050505050815260200160088201805461051790611955565b80601f016020809104026020016040519081016040528092919081815260200182805461054390611955565b80156105905780601f1061056557610100808354040283529160200191610590565b820191906000526020600020905b81548152906001019060200180831161057357829003601f168201915b5050509183525050600982015460209091019060ff1660038111156105b7576105b76115b2565b60038111156105c8576105c86115b2565b81526020016009820160019054906101000a900460ff1615151515815250509050806000015181602001518260400151836060015184608001518560a001518660c001518760e001518861010001518961012001518a61014001519b509b509b509b509b509b509b509b509b509b509b505091939597999b90929496989a50565b600154811061066a5760405162461bcd60e51b81526004016103e290611990565b60006001828154811061067f5761067f6119be565b600091825260208220600a909102019150600982015460ff1660038111156106a9576106a96115b2565b146106f65760405162461bcd60e51b815260206004820152601c60248201527f536869706d656e7420616c726561647920696e207472616e7369742e0000000060448201526064016103e2565b60098101805460ff191660019081179091556002820154908201546040516001600160a01b03928316929091169084907f2c4fdf52cfe219ca760145adcceb23c98ec8efc956afc78730430e644bc1648790600090a45050565b6000602081905290815260409020805461076990611955565b80601f016020809104026020016040519081016040528092919081815260200182805461079590611955565b80156107e25780601f106107b7576101008083540402835291602001916107e2565b820191906000526020600020905b8154815290600101906020018083116107c557829003601f168201915b505050505081565b8234146108455760405162461bcd60e51b8152602060048201526024808201527f5061796d656e7420616d6f756e74206d757374206d617463682074686520707260448201526334b1b29760e11b60648201526084016103e2565b60006040518061016001604052806002548152602001336001600160a01b03168152602001886001600160a01b0316815260200187815260200160008152602001868152602001858152602001848152602001838152602001600060038111156108b1576108b16115b2565b81526000602091820181905260018054808201825591528251600a9091027fb10e2d527612073b26eecdfd717e6a320cf44b4afac2b0732d9fcbe2b7fa0cf68101918255838301517fb10e2d527612073b26eecdfd717e6a320cf44b4afac2b0732d9fcbe2b7fa0cf7820180546001600160a01b039283166001600160a01b03199182161790915560408601517fb10e2d527612073b26eecdfd717e6a320cf44b4afac2b0732d9fcbe2b7fa0cf88401805491909316911617905560608401517fb10e2d527612073b26eecdfd717e6a320cf44b4afac2b0732d9fcbe2b7fa0cf982015560808401517fb10e2d527612073b26eecdfd717e6a320cf44b4afac2b0732d9fcbe2b7fa0cfa82015560a08401517fb10e2d527612073b26eecdfd717e6a320cf44b4afac2b0732d9fcbe2b7fa0cfb82015560c08401517fb10e2d527612073b26eecdfd717e6a320cf44b4afac2b0732d9fcbe2b7fa0cfc82015560e0840151805194955085949293610a4f937fb10e2d527612073b26eecdfd717e6a320cf44b4afac2b0732d9fcbe2b7fa0cfd90930192910190611427565b506101008201518051610a6c916008840191602090910190611427565b5061012082015160098201805460ff19166001836003811115610a9157610a916115b2565b02179055506101408201518160090160016101000a81548160ff0219169083151502179055505050866001600160a01b0316336001600160a01b03166002547fa9c5c2fba3f90f7b7e878dae58787c4e4c348702cb466c554febebbefc101bc98989898989604051610b079594939291906119d4565b60405180910390a460028054906000610b1f83611a17565b919050555050505050505050565b60606001805480602002602001604051908101604052809291908181526020016000905b82821015610d495760008481526020908190206040805161016081018252600a86029092018054835260018101546001600160a01b03908116948401949094526002810154909316908201526003820154606082015260048201546080820152600582015460a0820152600682015460c082015260078201805491929160e084019190610bdd90611955565b80601f0160208091040260200160405190810160405280929190818152602001828054610c0990611955565b8015610c565780601f10610c2b57610100808354040283529160200191610c56565b820191906000526020600020905b815481529060010190602001808311610c3957829003601f168201915b50505050508152602001600882018054610c6f90611955565b80601f0160208091040260200160405190810160405280929190818152602001828054610c9b90611955565b8015610ce85780601f10610cbd57610100808354040283529160200191610ce8565b820191906000526020600020905b815481529060010190602001808311610ccb57829003601f168201915b5050509183525050600982015460209091019060ff166003811115610d0f57610d0f6115b2565b6003811115610d2057610d206115b2565b815260099190910154610100900460ff1615156020918201529082526001929092019101610b51565b50505050905090565b6001548210610d735760405162461bcd60e51b81526004016103e290611990565b600060018381548110610d8857610d886119be565b60009182526020909120600a9091020190506001600982015460ff166003811115610db557610db56115b2565b14610e105760405162461bcd60e51b815260206004820152602560248201527f536869706d656e74206973206e6f7420617661696c61626c6520666f7220706960448201526431b5bab81760d91b60648201526084016103e2565b60098101805460ff191660021790556000838152602081815260409091208351610e3c92850190611427565b50827f91284f9b6da7f2ee0f3900972d2aa5c3b9e3682269335502200468ffe1dd14e683604051610e6d9190611673565b60405180910390a2505050565b60606000805b600154811015610f085783604051602001610e9b9190611a40565b60408051601f1981840301815282825280516020918201206000858152808352929092209192610ecc929101611a5c565b604051602081830303815290604052805190602001201415610ef65781610ef281611a17565b9250505b80610f0081611a17565b915050610e80565b5060008167ffffffffffffffff811115610f2457610f2461168d565b604051908082528060200260200182016040528015610f5d57816020015b610f4a6114ab565b815260200190600190039081610f425790505b5090506000805b6001548110156112005785604051602001610f7f9190611a40565b60408051601f1981840301815282825280516020918201206000858152808352929092209192610fb0929101611a5c565b6040516020818303038152906040528051906020012014156111ee5760018181548110610fdf57610fdf6119be565b60009182526020918290206040805161016081018252600a9093029091018054835260018101546001600160a01b03908116948401949094526002810154909316908201526003820154606082015260048201546080820152600582015460a0820152600682015460c082015260078201805491929160e08401919061106490611955565b80601f016020809104026020016040519081016040528092919081815260200182805461109090611955565b80156110dd5780601f106110b2576101008083540402835291602001916110dd565b820191906000526020600020905b8154815290600101906020018083116110c057829003601f168201915b505050505081526020016008820180546110f690611955565b80601f016020809104026020016040519081016040528092919081815260200182805461112290611955565b801561116f5780601f106111445761010080835404028352916020019161116f565b820191906000526020600020905b81548152906001019060200180831161115257829003601f168201915b5050509183525050600982015460209091019060ff166003811115611196576111966115b2565b60038111156111a7576111a76115b2565b815260099190910154610100900460ff16151560209091015283518490849081106111d4576111d46119be565b602002602001018190525081806111ea90611a17565b9250505b806111f881611a17565b915050610f64565b5090949350505050565b600154811061122b5760405162461bcd60e51b81526004016103e290611990565b600060018281548110611240576112406119be565b60009182526020909120600a9091020190506002600982015460ff16600381111561126d5761126d6115b2565b146112ba5760405162461bcd60e51b815260206004820152601860248201527f536869706d656e74206e6f7420696e207472616e7369742e000000000000000060448201526064016103e2565b6009810154610100900460ff161561130d5760405162461bcd60e51b815260206004820152601660248201527529b434b836b2b73a1030b63932b0b23c903830b4b21760511b60448201526064016103e2565b60098101805460ff19166003179055426004820155600181015460068201546040516001600160a01b03909216916108fc82150291906000818181858888f19350505050158015611362573d6000803e3d6000fd5b5060098101805461ff0019166101001790556002810154600182015460048301546040516001600160a01b0393841693929092169185917f0fb041cb26b6b9ef5d845cf5ce936b85a852f0a7a71e67f0ccc5a064c1692711916113c791815260200190565b60405180910390a46002810154600182015460068301546040519081526001600160a01b03928316929091169084907f2da557aa858f1d862fd5624a2fb741a7a4d8b1f7fe9a833be5bc78e2403104c29060200160405180910390a45050565b82805461143390611955565b90600052602060002090601f016020900481019282611455576000855561149b565b82601f1061146e57805160ff191683800117855561149b565b8280016001018555821561149b579182015b8281111561149b578251825591602001919060010190611480565b506114a7929150611528565b5090565b6040518061016001604052806000815260200160006001600160a01b0316815260200160006001600160a01b031681526020016000815260200160008152602001600081526020016000815260200160608152602001606081526020016000600381111561151b5761151b6115b2565b8152600060209091015290565b5b808211156114a75760008155600101611529565b60006020828403121561154f57600080fd5b5035919050565b60005b83811015611571578181015183820152602001611559565b83811115611580576000848401525b50505050565b6000815180845261159e816020860160208601611556565b601f01601f19169290920160200192915050565b634e487b7160e01b600052602160045260246000fd5b600481106115e657634e487b7160e01b600052602160045260246000fd5b9052565b60006101608d835260018060a01b03808e166020850152808d166040850152508a60608401528960808401528860a08401528760c08401528060e084015261163481840188611586565b90508281036101008401526116498187611586565b91505061165a6101208301856115c8565b8215156101408301529c9b505050505050505050505050565b6020815260006116866020830184611586565b9392505050565b634e487b7160e01b600052604160045260246000fd5b600082601f8301126116b457600080fd5b813567ffffffffffffffff808211156116cf576116cf61168d565b604051601f8301601f19908116603f011681019082821181831017156116f7576116f761168d565b8160405283815286602085880101111561171057600080fd5b836020870160208301376000602085830101528094505050505092915050565b60008060008060008060c0878903121561174957600080fd5b86356001600160a01b038116811461176057600080fd5b9550602087013594506040870135935060608701359250608087013567ffffffffffffffff8082111561179257600080fd5b61179e8a838b016116a3565b935060a08901359150808211156117b457600080fd5b506117c189828a016116a3565b9150509295509295509295565b60006020808301818452808551808352604092508286019150828160051b87010184880160005b838110156118c357603f19898403018552815180518452878101516001600160a01b0390811689860152878201511687850152606080820151908501526080808201519085015260a0808201519085015260c0808201519085015260e080820151610160828701819052919061186d83880182611586565b9250505061010080830151868303828801526118898382611586565b92505050610120808301516118a0828801826115c8565b5050610140918201511515949091019390935293860193908601906001016117f5565b509098975050505050505050565b600080604083850312156118e457600080fd5b82359150602083013567ffffffffffffffff81111561190257600080fd5b61190e858286016116a3565b9150509250929050565b60006020828403121561192a57600080fd5b813567ffffffffffffffff81111561194157600080fd5b61194d848285016116a3565b949350505050565b600181811c9082168061196957607f821691505b6020821081141561198a57634e487b7160e01b600052602260045260246000fd5b50919050565b60208082526014908201527324b73b30b634b21039b434b836b2b73a1024a21760611b604082015260600190565b634e487b7160e01b600052603260045260246000fd5b85815284602082015283604082015260a0606082015260006119f960a0830185611586565b8281036080840152611a0b8185611586565b98975050505050505050565b6000600019821415611a3957634e487b7160e01b600052601160045260246000fd5b5060010190565b60008251611a52818460208701611556565b9190910192915050565b600080835481600182811c915080831680611a7857607f831692505b6020808410821415611a9857634e487b7160e01b86526022600452602486fd5b818015611aac5760018114611abd57611aea565b60ff19861689528489019650611aea565b60008a81526020902060005b86811015611ae25781548b820152908501908301611ac9565b505084890196505b50949897505050505050505056fea26469706673582212202e0b3547f1efa74d2270cab34afeaa7f4106676007eb473876dad76102fe586664736f6c63430008090033",
  "linkReferences": {},
  "deployedLinkReferences": {}
}