{
  "_format": "hh-sol-artifact-1",
  "contractName": "Tracking",
  "sourceName": "contracts/Tracking.sol",
  "abi": [
    {
      "inputs": [],
      "stateMutability": "nonpayable",
      "type": "constructor"
    },
    {
      "anonymous": false,
      "inputs": [
        {
          "indexed": true,
          "internalType": "address",
          "name": "sender",
          "type": "address"
        },
        {
          "indexed": true,
          "internalType": "address",
          "name": "receiver",
          "type": "address"
        },
        {
          "indexed": false,
          "internalType": "uint256",
          "name": "pickupTime",
          "type": "uint256"
        },
        {
          "indexed": false,
          "internalType": "uint256",
          "name": "distance",
          "type": "uint256"
        },
        {
          "indexed": false,
          "internalType": "uint256",
          "name": "price",
          "type": "uint256"
        },
        {
          "indexed": false,
          "internalType": "string",
          "name": "start",
          "type": "string"
        },
        {
          "indexed": false,
          "internalType": "string",
          "name": "destination",
          "type": "string"
        }
      ],
      "name": "ShipmentCreated",
      "type": "event"
    },
    {
      "anonymous": false,
      "inputs": [
        {
          "indexed": true,
          "internalType": "address",
          "name": "sender",
          "type": "address"
        },
        {
          "indexed": true,
          "internalType": "address",
          "name": "receiver",
          "type": "address"
        },
        {
          "indexed": false,
          "internalType": "uint256",
          "name": "deliveryTime",
          "type": "uint256"
        }
      ],
      "name": "ShipmentDelivered",
      "type": "event"
    },
    {
      "anonymous": false,
      "inputs": [
        {
          "indexed": true,
          "internalType": "address",
          "name": "sender",
          "type": "address"
        },
        {
          "indexed": true,
          "internalType": "address",
          "name": "receiver",
          "type": "address"
        },
        {
          "indexed": false,
          "internalType": "uint256",
          "name": "pickupTime",
          "type": "uint256"
        }
      ],
      "name": "ShipmentInTransit",
      "type": "event"
    },
    {
      "anonymous": false,
      "inputs": [
        {
          "indexed": true,
          "internalType": "address",
          "name": "sender",
          "type": "address"
        },
        {
          "indexed": true,
          "internalType": "address",
          "name": "receiver",
          "type": "address"
        },
        {
          "indexed": false,
          "internalType": "uint256",
          "name": "amount",
          "type": "uint256"
        }
      ],
      "name": "ShipmentPaid",
      "type": "event"
    },
    {
      "inputs": [
        {
          "internalType": "address",
          "name": "_sender",
          "type": "address"
        },
        {
          "internalType": "address",
          "name": "_receiver",
          "type": "address"
        },
        {
          "internalType": "uint256",
          "name": "_index",
          "type": "uint256"
        }
      ],
      "name": "completeShipment",
      "outputs": [],
      "stateMutability": "nonpayable",
      "type": "function"
    },
    {
      "inputs": [
        {
          "internalType": "address",
          "name": "_receiver",
          "type": "address"
        },
        {
          "internalType": "uint256",
          "name": "_pickupTime",
          "type": "uint256"
        },
        {
          "internalType": "uint256",
          "name": "_distance",
          "type": "uint256"
        },
        {
          "internalType": "uint256",
          "name": "_price",
          "type": "uint256"
        },
        {
          "internalType": "string",
          "name": "_start",
          "type": "string"
        },
        {
          "internalType": "string",
          "name": "_destination",
          "type": "string"
        }
      ],
      "name": "createShipment",
      "outputs": [],
      "stateMutability": "payable",
      "type": "function"
    },
    {
      "inputs": [],
      "name": "getAllTransactions",
      "outputs": [
        {
          "components": [
            {
              "internalType": "address",
              "name": "sender",
              "type": "address"
            },
            {
              "internalType": "address",
              "name": "receiver",
              "type": "address"
            },
            {
              "internalType": "uint256",
              "name": "pickupTime",
              "type": "uint256"
            },
            {
              "internalType": "uint256",
              "name": "deliveryTime",
              "type": "uint256"
            },
            {
              "internalType": "uint256",
              "name": "distance",
              "type": "uint256"
            },
            {
              "internalType": "uint256",
              "name": "price",
              "type": "uint256"
            },
            {
              "internalType": "string",
              "name": "start",
              "type": "string"
            },
            {
              "internalType": "string",
              "name": "destination",
              "type": "string"
            },
            {
              "internalType": "enum Tracking.ShipmentStatus",
              "name": "status",
              "type": "uint8"
            },
            {
              "internalType": "bool",
              "name": "isPaid",
              "type": "bool"
            }
          ],
          "internalType": "struct Tracking.Shipment[]",
          "name": "",
          "type": "tuple[]"
        }
      ],
      "stateMutability": "view",
      "type": "function"
    },
    {
      "inputs": [
        {
          "internalType": "address",
          "name": "_sender",
          "type": "address"
        },
        {
          "internalType": "uint256",
          "name": "_index",
          "type": "uint256"
        }
      ],
      "name": "getShipment",
      "outputs": [
        {
          "internalType": "address",
          "name": "",
          "type": "address"
        },
        {
          "internalType": "address",
          "name": "",
          "type": "address"
        },
        {
          "internalType": "uint256",
          "name": "",
          "type": "uint256"
        },
        {
          "internalType": "uint256",
          "name": "",
          "type": "uint256"
        },
        {
          "internalType": "uint256",
          "name": "",
          "type": "uint256"
        },
        {
          "internalType": "uint256",
          "name": "",
          "type": "uint256"
        },
        {
          "internalType": "string",
          "name": "",
          "type": "string"
        },
        {
          "internalType": "string",
          "name": "",
          "type": "string"
        },
        {
          "internalType": "enum Tracking.ShipmentStatus",
          "name": "",
          "type": "uint8"
        },
        {
          "internalType": "bool",
          "name": "",
          "type": "bool"
        }
      ],
      "stateMutability": "view",
      "type": "function"
    },
    {
      "inputs": [
        {
          "internalType": "address",
          "name": "_sender",
          "type": "address"
        }
      ],
      "name": "getShipmentsCount",
      "outputs": [
        {
          "internalType": "uint256",
          "name": "",
          "type": "uint256"
        }
      ],
      "stateMutability": "view",
      "type": "function"
    },
    {
      "inputs": [],
      "name": "shipmentCount",
      "outputs": [
        {
          "internalType": "uint256",
          "name": "",
          "type": "uint256"
        }
      ],
      "stateMutability": "view",
      "type": "function"
    },
    {
      "inputs": [
        {
          "internalType": "address",
          "name": "",
          "type": "address"
        },
        {
          "internalType": "uint256",
          "name": "",
          "type": "uint256"
        }
      ],
      "name": "shipments",
      "outputs": [
        {
          "internalType": "address",
          "name": "sender",
          "type": "address"
        },
        {
          "internalType": "address",
          "name": "receiver",
          "type": "address"
        },
        {
          "internalType": "uint256",
          "name": "pickupTime",
          "type": "uint256"
        },
        {
          "internalType": "uint256",
          "name": "deliveryTime",
          "type": "uint256"
        },
        {
          "internalType": "uint256",
          "name": "distance",
          "type": "uint256"
        },
        {
          "internalType": "uint256",
          "name": "price",
          "type": "uint256"
        },
        {
          "internalType": "string",
          "name": "start",
          "type": "string"
        },
        {
          "internalType": "string",
          "name": "destination",
          "type": "string"
        },
        {
          "internalType": "enum Tracking.ShipmentStatus",
          "name": "status",
          "type": "uint8"
        },
        {
          "internalType": "bool",
          "name": "isPaid",
          "type": "bool"
        }
      ],
      "stateMutability": "view",
      "type": "function"
    },
    {
      "inputs": [
        {
          "internalType": "address",
          "name": "_sender",
          "type": "address"
        },
        {
          "internalType": "address",
          "name": "_receiver",
          "type": "address"
        },
        {
          "internalType": "uint256",
          "name": "_index",
          "type": "uint256"
        }
      ],
      "name": "startShipment",
      "outputs": [],
      "stateMutability": "nonpayable",
      "type": "function"
    }
  ],
  "bytecode": "0x608060405234801561001057600080fd5b506000600155611456806100256000396000f3fe60806040526004361061007b5760003560e01c80635667e02f1161004e5780635667e02f146101245780637ff5265d1461015a5780638365da541461017a578063aace20b71461019a57600080fd5b8063146ae10814610080578063179a878c1461009557806327506f53146100b557806341fdc195146100e0575b600080fd5b61009361008e366004611047565b6101b0565b005b3480156100a157600080fd5b506100936100b03660046110d7565b6103f5565b3480156100c157600080fd5b506100ca610648565b6040516100d79190611198565b60405180910390f35b3480156100ec57600080fd5b506101166100fb366004611296565b6001600160a01b031660009081526020819052604090205490565b6040519081526020016100d7565b34801561013057600080fd5b5061014461013f3660046112b8565b610917565b6040516100d79a999897969594939291906112e2565b34801561016657600080fd5b506100936101753660046110d7565b610aa9565b34801561018657600080fd5b506101446101953660046112b8565b610bfe565b3480156101a657600080fd5b5061011660015481565b8234146102105760405162461bcd60e51b8152602060048201526024808201527f5061796d656e7420616d6f756e74206d757374206d617463682074686520707260448201526334b1b29760e11b60648201526084015b60405180910390fd5b6000604051806101400160405280336001600160a01b03168152602001886001600160a01b03168152602001878152602001600081526020018681526020018581526020018481526020018381526020016000600281111561027457610274611160565b815260006020918201819052338152808252604080822080546001818101835591845292849020855160099094020180546001600160a01b039485166001600160a01b0319918216178255868601519282018054939095169216919091179092558301516002820155606083015160038201556080830151600482015560a0830151600582015560c083015180519394508493919261031b92600685019290910190610e79565b5060e08201518051610337916007840191602090910190610e79565b5061010082015160088201805460ff1916600183600281111561035c5761035c611160565b02179055506101209190910151600890910180549115156101000261ff00199092169190911790556001805490600061039483611363565b9190505550866001600160a01b0316336001600160a01b03167f4293e53ae42b07d2205ee453f9b3d035ac358edd876c7b4d77d63e51881dacd788888888886040516103e495949392919061138c565b60405180910390a350505050505050565b6001600160a01b038316600090815260208190526040812080548390811061041f5761041f6113cf565b6000918252602090912060099091020160018101549091506001600160a01b038481169116146104855760405162461bcd60e51b815260206004820152601160248201527024b73b30b634b2103932b1b2b4bb32b91760791b6044820152606401610207565b6001600882015460ff1660028111156104a0576104a0611160565b146104ed5760405162461bcd60e51b815260206004820152601860248201527f536869706d656e74206e6f7420696e207472616e7369742e00000000000000006044820152606401610207565b6008810154610100900460ff16156105405760405162461bcd60e51b815260206004820152601660248201527529b434b836b2b73a1030b63932b0b23c903830b4b21760511b6044820152606401610207565b60088101805460ff19166002179055426003820155600581015481546040516001600160a01b03909116906108fc8315029083906000818181858888f19350505050158015610593573d6000803e3d6000fd5b5060088201805461ff00191661010017905560038201546040516001600160a01b0380871692908816917f3746ccceb54f44c9b0ee0120e596168d07ec9f6ca303cfdd9810d3b2e2686a2e916105ec9190815260200190565b60405180910390a3836001600160a01b0316856001600160a01b03167f2b6f2473aebafaf8d0889669490135928ec4454d2e29a103fd39693bbca6aef18360405161063991815260200190565b60405180910390a35050505050565b60606000805b33600090815260208190526040902054811015610685578161066f81611363565b925050808061067d90611363565b91505061064e565b5060008167ffffffffffffffff8111156106a1576106a1610fa4565b6040519080825280602002602001820160405280156106da57816020015b6106c7610efd565b8152602001906001900390816106bf5790505b50905060005b8281101561091057336000908152602081905260409020805482908110610709576107096113cf565b60009182526020918290206040805161014081018252600990930290910180546001600160a01b039081168452600182015416938301939093526002830154908201526003820154606082015260048201546080820152600582015460a082015260068201805491929160c084019190610782906113e5565b80601f01602080910402602001604051908101604052809291908181526020018280546107ae906113e5565b80156107fb5780601f106107d0576101008083540402835291602001916107fb565b820191906000526020600020905b8154815290600101906020018083116107de57829003601f168201915b50505050508152602001600782018054610814906113e5565b80601f0160208091040260200160405190810160405280929190818152602001828054610840906113e5565b801561088d5780601f106108625761010080835404028352916020019161088d565b820191906000526020600020905b81548152906001019060200180831161087057829003601f168201915b5050509183525050600882015460209091019060ff1660028111156108b4576108b4611160565b60028111156108c5576108c5611160565b815260089190910154610100900460ff16151560209091015282518390839081106108f2576108f26113cf565b6020026020010181905250808061090890611363565b9150506106e0565b5092915050565b6000602052816000526040600020818154811061093357600080fd5b600091825260209091206009909102018054600182015460028301546003840154600485015460058601546006870180546001600160a01b039788169a50959096169750929591949093610986906113e5565b80601f01602080910402602001604051908101604052809291908181526020018280546109b2906113e5565b80156109ff5780601f106109d4576101008083540402835291602001916109ff565b820191906000526020600020905b8154815290600101906020018083116109e257829003601f168201915b505050505090806007018054610a14906113e5565b80601f0160208091040260200160405190810160405280929190818152602001828054610a40906113e5565b8015610a8d5780601f10610a6257610100808354040283529160200191610a8d565b820191906000526020600020905b815481529060010190602001808311610a7057829003601f168201915b5050506008909301549192505060ff808216916101009004168a565b6001600160a01b0383166000908152602081905260408120805483908110610ad357610ad36113cf565b6000918252602090912060099091020160018101549091506001600160a01b03848116911614610b395760405162461bcd60e51b815260206004820152601160248201527024b73b30b634b2103932b1b2b4bb32b91760791b6044820152606401610207565b6000600882015460ff166002811115610b5457610b54611160565b14610ba15760405162461bcd60e51b815260206004820152601c60248201527f536869706d656e7420616c726561647920696e207472616e7369742e000000006044820152606401610207565b60088101805460ff1916600117905560028101546040519081526001600160a01b0380851691908616907faafab9f94340179ff9cefd29621e1772a4b8efab8023163838f1b0a8f6ce5df59060200160405180910390a350505050565b60008060008060008060608060008060008060008e6001600160a01b03166001600160a01b031681526020019081526020016000208c81548110610c4457610c446113cf565b60009182526020918290206040805161014081018252600990930290910180546001600160a01b039081168452600182015416938301939093526002830154908201526003820154606082015260048201546080820152600582015460a082015260068201805491929160c084019190610cbd906113e5565b80601f0160208091040260200160405190810160405280929190818152602001828054610ce9906113e5565b8015610d365780601f10610d0b57610100808354040283529160200191610d36565b820191906000526020600020905b815481529060010190602001808311610d1957829003601f168201915b50505050508152602001600782018054610d4f906113e5565b80601f0160208091040260200160405190810160405280929190818152602001828054610d7b906113e5565b8015610dc85780601f10610d9d57610100808354040283529160200191610dc8565b820191906000526020600020905b815481529060010190602001808311610dab57829003601f168201915b5050509183525050600882015460209091019060ff166002811115610def57610def611160565b6002811115610e0057610e00611160565b81526020016008820160019054906101000a900460ff1615151515815250509050806000015181602001518260400151836060015184608001518560a001518660c001518760e001518861010001518961012001519a509a509a509a509a509a509a509a509a509a50509295989b9194979a5092959850565b828054610e85906113e5565b90600052602060002090601f016020900481019282610ea75760008555610eed565b82601f10610ec057805160ff1916838001178555610eed565b82800160010185558215610eed579182015b82811115610eed578251825591602001919060010190610ed2565b50610ef9929150610f73565b5090565b60405180610140016040528060006001600160a01b0316815260200160006001600160a01b0316815260200160008152602001600081526020016000815260200160008152602001606081526020016060815260200160006002811115610f6657610f66611160565b8152600060209091015290565b5b80821115610ef95760008155600101610f74565b80356001600160a01b0381168114610f9f57600080fd5b919050565b634e487b7160e01b600052604160045260246000fd5b600082601f830112610fcb57600080fd5b813567ffffffffffffffff80821115610fe657610fe6610fa4565b604051601f8301601f19908116603f0116810190828211818310171561100e5761100e610fa4565b8160405283815286602085880101111561102757600080fd5b836020870160208301376000602085830101528094505050505092915050565b60008060008060008060c0878903121561106057600080fd5b61106987610f88565b9550602087013594506040870135935060608701359250608087013567ffffffffffffffff8082111561109b57600080fd5b6110a78a838b01610fba565b935060a08901359150808211156110bd57600080fd5b506110ca89828a01610fba565b9150509295509295509295565b6000806000606084860312156110ec57600080fd5b6110f584610f88565b925061110360208501610f88565b9150604084013590509250925092565b6000815180845260005b818110156111395760208185018101518683018201520161111d565b8181111561114b576000602083870101525b50601f01601f19169290920160200192915050565b634e487b7160e01b600052602160045260246000fd5b6003811061119457634e487b7160e01b600052602160045260246000fd5b9052565b60006020808301818452808551808352604092508286019150828160051b87010184880160005b8381101561128857888303603f19018552815180516001600160a01b03168452610140818901516001600160a01b038116868b0152508188015185890152606080830151908601526080808301519086015260a0808301519086015260c08083015181870183905261123383880182611113565b9250505060e0808301518683038288015261124e8382611113565b925050506101008083015161126582880182611176565b5050610120918201511515949091019390935293860193908601906001016111bf565b509098975050505050505050565b6000602082840312156112a857600080fd5b6112b182610f88565b9392505050565b600080604083850312156112cb57600080fd5b6112d483610f88565b946020939093013593505050565b600061014060018060a01b03808e168452808d166020850152508a60408401528960608401528860808401528760a08401528060c084015261132681840188611113565b905082810360e084015261133a8187611113565b91505061134b610100830185611176565b8215156101208301529b9a5050505050505050505050565b600060001982141561138557634e487b7160e01b600052601160045260246000fd5b5060010190565b85815284602082015283604082015260a0606082015260006113b160a0830185611113565b82810360808401526113c38185611113565b98975050505050505050565b634e487b7160e01b600052603260045260246000fd5b600181811c908216806113f957607f821691505b6020821081141561141a57634e487b7160e01b600052602260045260246000fd5b5091905056fea2646970667358221220ec066d9c8741dbfa8279fc23f8de223f192e15bd0e9ccf0c34af2d95afe50bca64736f6c63430008090033",
  "linkReferences": {},
  "deployedLinkReferences": {}
}