{
  "_format": "hh-sol-artifact-1",
  "contractName": "Tracking",
  "sourceName": "contracts/Tracking.sol",
  "abi": [
    {
      "inputs": [],
      "stateMutability": "nonpayable",
      "type": "constructor"
    },
    {
      "anonymous": false,
      "inputs": [
        {
          "indexed": true,
          "internalType": "uint256",
          "name": "id",
          "type": "uint256"
        },
        {
          "indexed": true,
          "internalType": "address",
          "name": "sender",
          "type": "address"
        },
        {
          "indexed": true,
          "internalType": "address",
          "name": "receiver",
          "type": "address"
        },
        {
          "indexed": false,
          "internalType": "uint256",
          "name": "pickupTime",
          "type": "uint256"
        },
        {
          "indexed": false,
          "internalType": "uint256",
          "name": "distance",
          "type": "uint256"
        },
        {
          "indexed": false,
          "internalType": "uint256",
          "name": "price",
          "type": "uint256"
        },
        {
          "indexed": false,
          "internalType": "string",
          "name": "start",
          "type": "string"
        },
        {
          "indexed": false,
          "internalType": "string",
          "name": "destination",
          "type": "string"
        }
      ],
      "name": "ShipmentCreated",
      "type": "event"
    },
    {
      "anonymous": false,
      "inputs": [
        {
          "indexed": true,
          "internalType": "uint256",
          "name": "id",
          "type": "uint256"
        },
        {
          "indexed": true,
          "internalType": "address",
          "name": "sender",
          "type": "address"
        },
        {
          "indexed": true,
          "internalType": "address",
          "name": "receiver",
          "type": "address"
        },
        {
          "indexed": false,
          "internalType": "uint256",
          "name": "deliveryTime",
          "type": "uint256"
        }
      ],
      "name": "ShipmentDelivered",
      "type": "event"
    },
    {
      "anonymous": false,
      "inputs": [
        {
          "indexed": true,
          "internalType": "uint256",
          "name": "id",
          "type": "uint256"
        },
        {
          "indexed": true,
          "internalType": "address",
          "name": "sender",
          "type": "address"
        },
        {
          "indexed": true,
          "internalType": "address",
          "name": "receiver",
          "type": "address"
        }
      ],
      "name": "ShipmentInTransit",
      "type": "event"
    },
    {
      "anonymous": false,
      "inputs": [
        {
          "indexed": true,
          "internalType": "uint256",
          "name": "id",
          "type": "uint256"
        },
        {
          "indexed": true,
          "internalType": "address",
          "name": "sender",
          "type": "address"
        },
        {
          "indexed": true,
          "internalType": "address",
          "name": "receiver",
          "type": "address"
        },
        {
          "indexed": false,
          "internalType": "uint256",
          "name": "amount",
          "type": "uint256"
        }
      ],
      "name": "ShipmentPaid",
      "type": "event"
    },
    {
      "inputs": [
        {
          "internalType": "uint256",
          "name": "",
          "type": "uint256"
        }
      ],
      "name": "allShipments",
      "outputs": [
        {
          "internalType": "uint256",
          "name": "id",
          "type": "uint256"
        },
        {
          "internalType": "address",
          "name": "sender",
          "type": "address"
        },
        {
          "internalType": "address",
          "name": "receiver",
          "type": "address"
        },
        {
          "internalType": "uint256",
          "name": "pickupTime",
          "type": "uint256"
        },
        {
          "internalType": "uint256",
          "name": "deliveryTime",
          "type": "uint256"
        },
        {
          "internalType": "uint256",
          "name": "distance",
          "type": "uint256"
        },
        {
          "internalType": "uint256",
          "name": "price",
          "type": "uint256"
        },
        {
          "internalType": "string",
          "name": "start",
          "type": "string"
        },
        {
          "internalType": "string",
          "name": "destination",
          "type": "string"
        },
        {
          "internalType": "enum Tracking.ShipmentStatus",
          "name": "status",
          "type": "uint8"
        },
        {
          "internalType": "bool",
          "name": "isPaid",
          "type": "bool"
        }
      ],
      "stateMutability": "view",
      "type": "function"
    },
    {
      "inputs": [
        {
          "internalType": "uint256",
          "name": "_id",
          "type": "uint256"
        }
      ],
      "name": "completeShipment",
      "outputs": [],
      "stateMutability": "nonpayable",
      "type": "function"
    },
    {
      "inputs": [
        {
          "internalType": "address",
          "name": "_receiver",
          "type": "address"
        },
        {
          "internalType": "uint256",
          "name": "_pickupTime",
          "type": "uint256"
        },
        {
          "internalType": "uint256",
          "name": "_distance",
          "type": "uint256"
        },
        {
          "internalType": "uint256",
          "name": "_price",
          "type": "uint256"
        },
        {
          "internalType": "string",
          "name": "_start",
          "type": "string"
        },
        {
          "internalType": "string",
          "name": "_destination",
          "type": "string"
        }
      ],
      "name": "createShipment",
      "outputs": [],
      "stateMutability": "payable",
      "type": "function"
    },
    {
      "inputs": [],
      "name": "getAllTransactions",
      "outputs": [
        {
          "components": [
            {
              "internalType": "uint256",
              "name": "id",
              "type": "uint256"
            },
            {
              "internalType": "address",
              "name": "sender",
              "type": "address"
            },
            {
              "internalType": "address",
              "name": "receiver",
              "type": "address"
            },
            {
              "internalType": "uint256",
              "name": "pickupTime",
              "type": "uint256"
            },
            {
              "internalType": "uint256",
              "name": "deliveryTime",
              "type": "uint256"
            },
            {
              "internalType": "uint256",
              "name": "distance",
              "type": "uint256"
            },
            {
              "internalType": "uint256",
              "name": "price",
              "type": "uint256"
            },
            {
              "internalType": "string",
              "name": "start",
              "type": "string"
            },
            {
              "internalType": "string",
              "name": "destination",
              "type": "string"
            },
            {
              "internalType": "enum Tracking.ShipmentStatus",
              "name": "status",
              "type": "uint8"
            },
            {
              "internalType": "bool",
              "name": "isPaid",
              "type": "bool"
            }
          ],
          "internalType": "struct Tracking.Shipment[]",
          "name": "",
          "type": "tuple[]"
        }
      ],
      "stateMutability": "view",
      "type": "function"
    },
    {
      "inputs": [
        {
          "internalType": "uint256",
          "name": "_id",
          "type": "uint256"
        }
      ],
      "name": "getShipment",
      "outputs": [
        {
          "internalType": "uint256",
          "name": "",
          "type": "uint256"
        },
        {
          "internalType": "address",
          "name": "",
          "type": "address"
        },
        {
          "internalType": "address",
          "name": "",
          "type": "address"
        },
        {
          "internalType": "uint256",
          "name": "",
          "type": "uint256"
        },
        {
          "internalType": "uint256",
          "name": "",
          "type": "uint256"
        },
        {
          "internalType": "uint256",
          "name": "",
          "type": "uint256"
        },
        {
          "internalType": "uint256",
          "name": "",
          "type": "uint256"
        },
        {
          "internalType": "string",
          "name": "",
          "type": "string"
        },
        {
          "internalType": "string",
          "name": "",
          "type": "string"
        },
        {
          "internalType": "enum Tracking.ShipmentStatus",
          "name": "",
          "type": "uint8"
        },
        {
          "internalType": "bool",
          "name": "",
          "type": "bool"
        }
      ],
      "stateMutability": "view",
      "type": "function"
    },
    {
      "inputs": [],
      "name": "getShipmentsCount",
      "outputs": [
        {
          "internalType": "uint256",
          "name": "",
          "type": "uint256"
        }
      ],
      "stateMutability": "view",
      "type": "function"
    },
    {
      "inputs": [],
      "name": "shipmentCount",
      "outputs": [
        {
          "internalType": "uint256",
          "name": "",
          "type": "uint256"
        }
      ],
      "stateMutability": "view",
      "type": "function"
    },
    {
      "inputs": [
        {
          "internalType": "uint256",
          "name": "_id",
          "type": "uint256"
        }
      ],
      "name": "startShipment",
      "outputs": [],
      "stateMutability": "nonpayable",
      "type": "function"
    }
  ],
  "bytecode": "0x608060405234801561001057600080fd5b506000600155611369806100256000396000f3fe60806040526004361061007b5760003560e01c806327506f531161004e57806327506f5314610115578063aace20b714610137578063d6331a951461015b578063f15456b51461017057600080fd5b80630612e03b14610080578063092b3740146100c057806309abeffa146100e0578063146ae10814610102575b600080fd5b34801561008c57600080fd5b506100a061009b366004610edd565b610190565b6040516100b79b9a99989796959493929190610f7b565b60405180910390f35b3480156100cc57600080fd5b506100a06100db366004610edd565b61031f565b3480156100ec57600080fd5b506101006100fb366004610edd565b6105ba565b005b6101006101103660046110a7565b6106c0565b34801561012157600080fd5b5061012a610a03565b6040516100b79190611145565b34801561014357600080fd5b5061014d60015481565b6040519081526020016100b7565b34801561016757600080fd5b5060005461014d565b34801561017c57600080fd5b5061010061018b366004610edd565b610c28565b600081815481106101a057600080fd5b60009182526020909120600a9091020180546001820154600283015460038401546004850154600586015460068701546007880180549799506001600160a01b039687169895909616969395929491939092906101fc90611248565b80601f016020809104026020016040519081016040528092919081815260200182805461022890611248565b80156102755780601f1061024a57610100808354040283529160200191610275565b820191906000526020600020905b81548152906001019060200180831161025857829003601f168201915b50505050509080600801805461028a90611248565b80601f01602080910402602001604051908101604052809291908181526020018280546102b690611248565b80156103035780601f106102d857610100808354040283529160200191610303565b820191906000526020600020905b8154815290600101906020018083116102e657829003601f168201915b5050506009909301549192505060ff808216916101009004168b565b60008060008060008060006060806000806000805490508c1061035d5760405162461bcd60e51b815260040161035490611283565b60405180910390fd5b6000808d81548110610371576103716112b1565b60009182526020918290206040805161016081018252600a9093029091018054835260018101546001600160a01b03908116948401949094526002810154909316908201526003820154606082015260048201546080820152600582015460a0820152600682015460c082015260078201805491929160e0840191906103f690611248565b80601f016020809104026020016040519081016040528092919081815260200182805461042290611248565b801561046f5780601f106104445761010080835404028352916020019161046f565b820191906000526020600020905b81548152906001019060200180831161045257829003601f168201915b5050505050815260200160088201805461048890611248565b80601f01602080910402602001604051908101604052809291908181526020018280546104b490611248565b80156105015780601f106104d657610100808354040283529160200191610501565b820191906000526020600020905b8154815290600101906020018083116104e457829003601f168201915b5050509183525050600982015460209091019060ff16600281111561052857610528610f43565b600281111561053957610539610f43565b81526020016009820160019054906101000a900460ff1615151515815250509050806000015181602001518260400151836060015184608001518560a001518660c001518760e001518861010001518961012001518a61014001519b509b509b509b509b509b509b509b509b509b509b505091939597999b90929496989a50565b60005481106105db5760405162461bcd60e51b815260040161035490611283565b60008082815481106105ef576105ef6112b1565b600091825260208220600a909102019150600982015460ff16600281111561061957610619610f43565b146106665760405162461bcd60e51b815260206004820152601c60248201527f536869706d656e7420616c726561647920696e207472616e7369742e000000006044820152606401610354565b60098101805460ff191660019081179091556002820154908201546040516001600160a01b03928316929091169084907f2c4fdf52cfe219ca760145adcceb23c98ec8efc956afc78730430e644bc1648790600090a45050565b82341461071b5760405162461bcd60e51b8152602060048201526024808201527f5061796d656e7420616d6f756e74206d757374206d617463682074686520707260448201526334b1b29760e11b6064820152608401610354565b60006040518061016001604052806001548152602001336001600160a01b03168152602001886001600160a01b03168152602001878152602001600081526020018681526020018581526020018481526020018381526020016000600281111561078757610787610f43565b81526000602091820181905280546001810182559080528251600a9091027f290decd9548b62a8d60345a988386fc84ba6bc95484008f6362f93160ef3e5638101918255838301517f290decd9548b62a8d60345a988386fc84ba6bc95484008f6362f93160ef3e564820180546001600160a01b039283166001600160a01b03199182161790915560408601517f290decd9548b62a8d60345a988386fc84ba6bc95484008f6362f93160ef3e5658401805491909316911617905560608401517f290decd9548b62a8d60345a988386fc84ba6bc95484008f6362f93160ef3e56682015560808401517f290decd9548b62a8d60345a988386fc84ba6bc95484008f6362f93160ef3e56782015560a08401517f290decd9548b62a8d60345a988386fc84ba6bc95484008f6362f93160ef3e56882015560c08401517f290decd9548b62a8d60345a988386fc84ba6bc95484008f6362f93160ef3e56982015560e0840151805194955085949293610925937f290decd9548b62a8d60345a988386fc84ba6bc95484008f6362f93160ef3e56a90930192910190610e44565b506101008201518051610942916008840191602090910190610e44565b5061012082015160098201805460ff1916600183600281111561096757610967610f43565b02179055506101408201518160090160016101000a81548160ff0219169083151502179055505050866001600160a01b0316336001600160a01b03166001547fa9c5c2fba3f90f7b7e878dae58787c4e4c348702cb466c554febebbefc101bc989898989896040516109dd9594939291906112c7565b60405180910390a4600180549060006109f58361130a565b919050555050505050505050565b60606000805480602002602001604051908101604052809291908181526020016000905b82821015610c1f5760008481526020908190206040805161016081018252600a86029092018054835260018101546001600160a01b03908116948401949094526002810154909316908201526003820154606082015260048201546080820152600582015460a0820152600682015460c082015260078201805491929160e084019190610ab390611248565b80601f0160208091040260200160405190810160405280929190818152602001828054610adf90611248565b8015610b2c5780601f10610b0157610100808354040283529160200191610b2c565b820191906000526020600020905b815481529060010190602001808311610b0f57829003601f168201915b50505050508152602001600882018054610b4590611248565b80601f0160208091040260200160405190810160405280929190818152602001828054610b7190611248565b8015610bbe5780601f10610b9357610100808354040283529160200191610bbe565b820191906000526020600020905b815481529060010190602001808311610ba157829003601f168201915b5050509183525050600982015460209091019060ff166002811115610be557610be5610f43565b6002811115610bf657610bf6610f43565b815260099190910154610100900460ff1615156020918201529082526001929092019101610a27565b50505050905090565b6000548110610c495760405162461bcd60e51b815260040161035490611283565b6000808281548110610c5d57610c5d6112b1565b60009182526020909120600a9091020190506001600982015460ff166002811115610c8a57610c8a610f43565b14610cd75760405162461bcd60e51b815260206004820152601860248201527f536869706d656e74206e6f7420696e207472616e7369742e00000000000000006044820152606401610354565b6009810154610100900460ff1615610d2a5760405162461bcd60e51b815260206004820152601660248201527529b434b836b2b73a1030b63932b0b23c903830b4b21760511b6044820152606401610354565b60098101805460ff19166002179055426004820155600181015460068201546040516001600160a01b03909216916108fc82150291906000818181858888f19350505050158015610d7f573d6000803e3d6000fd5b5060098101805461ff0019166101001790556002810154600182015460048301546040516001600160a01b0393841693929092169185917f0fb041cb26b6b9ef5d845cf5ce936b85a852f0a7a71e67f0ccc5a064c169271191610de491815260200190565b60405180910390a46002810154600182015460068301546040519081526001600160a01b03928316929091169084907f2da557aa858f1d862fd5624a2fb741a7a4d8b1f7fe9a833be5bc78e2403104c29060200160405180910390a45050565b828054610e5090611248565b90600052602060002090601f016020900481019282610e725760008555610eb8565b82601f10610e8b57805160ff1916838001178555610eb8565b82800160010185558215610eb8579182015b82811115610eb8578251825591602001919060010190610e9d565b50610ec4929150610ec8565b5090565b5b80821115610ec45760008155600101610ec9565b600060208284031215610eef57600080fd5b5035919050565b6000815180845260005b81811015610f1c57602081850181015186830182015201610f00565b81811115610f2e576000602083870101525b50601f01601f19169290920160200192915050565b634e487b7160e01b600052602160045260246000fd5b60038110610f7757634e487b7160e01b600052602160045260246000fd5b9052565b60006101608d835260018060a01b03808e166020850152808d166040850152508a60608401528960808401528860a08401528760c08401528060e0840152610fc581840188610ef6565b9050828103610100840152610fda8187610ef6565b915050610feb610120830185610f59565b8215156101408301529c9b505050505050505050505050565b634e487b7160e01b600052604160045260246000fd5b600082601f83011261102b57600080fd5b813567ffffffffffffffff8082111561104657611046611004565b604051601f8301601f19908116603f0116810190828211818310171561106e5761106e611004565b8160405283815286602085880101111561108757600080fd5b836020870160208301376000602085830101528094505050505092915050565b60008060008060008060c087890312156110c057600080fd5b86356001600160a01b03811681146110d757600080fd5b9550602087013594506040870135935060608701359250608087013567ffffffffffffffff8082111561110957600080fd5b6111158a838b0161101a565b935060a089013591508082111561112b57600080fd5b5061113889828a0161101a565b9150509295509295509295565b60006020808301818452808551808352604092508286019150828160051b87010184880160005b8381101561123a57603f19898403018552815180518452878101516001600160a01b0390811689860152878201511687850152606080820151908501526080808201519085015260a0808201519085015260c0808201519085015260e08082015161016082870181905291906111e483880182610ef6565b9250505061010080830151868303828801526112008382610ef6565b925050506101208083015161121782880182610f59565b50506101409182015115159490910193909352938601939086019060010161116c565b509098975050505050505050565b600181811c9082168061125c57607f821691505b6020821081141561127d57634e487b7160e01b600052602260045260246000fd5b50919050565b60208082526014908201527324b73b30b634b21039b434b836b2b73a1024a21760611b604082015260600190565b634e487b7160e01b600052603260045260246000fd5b85815284602082015283604082015260a0606082015260006112ec60a0830185610ef6565b82810360808401526112fe8185610ef6565b98975050505050505050565b600060001982141561132c57634e487b7160e01b600052601160045260246000fd5b506001019056fea264697066735822122049e251e103470a4e1138dc34c8ac27c9e19fabd0fcdbe807e5376dd8479a954e64736f6c63430008090033",
  "linkReferences": {},
  "deployedLinkReferences": {}
}